{
  "_format": "hh-sol-artifact-1",
  "contractName": "EventTicketFactory",
  "sourceName": "contracts/EventTicketFactory.sol",
  "abi": [
    {
      "inputs": [],
      "stateMutability": "nonpayable",
      "type": "constructor"
    },
    {
      "inputs": [],
      "name": "FailedDeployment",
      "type": "error"
    },
    {
      "inputs": [
        {
          "internalType": "uint256",
          "name": "balance",
          "type": "uint256"
        },
        {
          "internalType": "uint256",
          "name": "needed",
          "type": "uint256"
        }
      ],
      "name": "InsufficientBalance",
      "type": "error"
    },
    {
      "inputs": [
        {
          "internalType": "address",
          "name": "owner",
          "type": "address"
        }
      ],
      "name": "OwnableInvalidOwner",
      "type": "error"
    },
    {
      "inputs": [
        {
          "internalType": "address",
          "name": "account",
          "type": "address"
        }
      ],
      "name": "OwnableUnauthorizedAccount",
      "type": "error"
    },
    {
      "anonymous": false,
      "inputs": [
        {
          "indexed": true,
          "internalType": "address",
          "name": "eventAddress",
          "type": "address"
        },
        {
          "indexed": true,
          "internalType": "address",
          "name": "creator",
          "type": "address"
        },
        {
          "indexed": false,
          "internalType": "string",
          "name": "name",
          "type": "string"
        },
        {
          "indexed": false,
          "internalType": "uint256",
          "name": "ticketPrice",
          "type": "uint256"
        },
        {
          "indexed": false,
          "internalType": "uint256",
          "name": "maxSupply",
          "type": "uint256"
        },
        {
          "indexed": false,
          "internalType": "string",
          "name": "eventURI",
          "type": "string"
        },
        {
          "indexed": false,
          "internalType": "uint256",
          "name": "maxTicketsPerAddress",
          "type": "uint256"
        },
        {
          "indexed": false,
          "internalType": "uint256",
          "name": "startPurchaseTime",
          "type": "uint256"
        },
        {
          "indexed": false,
          "internalType": "uint256",
          "name": "eventEndTime",
          "type": "uint256"
        }
      ],
      "name": "EventCreated",
      "type": "event"
    },
    {
      "anonymous": false,
      "inputs": [
        {
          "indexed": true,
          "internalType": "address",
          "name": "previousOwner",
          "type": "address"
        },
        {
          "indexed": true,
          "internalType": "address",
          "name": "newOwner",
          "type": "address"
        }
      ],
      "name": "OwnershipTransferred",
      "type": "event"
    },
    {
      "anonymous": false,
      "inputs": [
        {
          "indexed": true,
          "internalType": "address",
          "name": "logicContract",
          "type": "address"
        }
      ],
      "name": "logicContract",
      "type": "event"
    },
    {
      "inputs": [
        {
          "internalType": "string",
          "name": "_name",
          "type": "string"
        },
        {
          "internalType": "string",
          "name": "_symbol",
          "type": "string"
        },
        {
          "internalType": "uint256",
          "name": "_ticketPrice",
          "type": "uint256"
        },
        {
          "internalType": "uint256",
          "name": "_maxSupply",
          "type": "uint256"
        },
        {
          "internalType": "string",
          "name": "_eventURI",
          "type": "string"
        },
        {
          "internalType": "string",
          "name": "_baseTokenURI",
          "type": "string"
        },
        {
          "internalType": "uint256",
          "name": "_maxTicketsPerAddress",
          "type": "uint256"
        },
        {
          "internalType": "uint256",
          "name": "_startPurchaseTime",
          "type": "uint256"
        },
        {
          "internalType": "uint256",
          "name": "_eventEndTime",
          "type": "uint256"
        }
      ],
      "name": "createEvent",
      "outputs": [
        {
          "internalType": "address",
          "name": "",
          "type": "address"
        }
      ],
      "stateMutability": "nonpayable",
      "type": "function"
    },
    {
      "inputs": [],
      "name": "eventLogic",
      "outputs": [
        {
          "internalType": "address",
          "name": "",
          "type": "address"
        }
      ],
      "stateMutability": "view",
      "type": "function"
    },
    {
      "inputs": [],
      "name": "getEvents",
      "outputs": [
        {
          "internalType": "address[]",
          "name": "",
          "type": "address[]"
        }
      ],
      "stateMutability": "view",
      "type": "function"
    },
    {
      "inputs": [],
      "name": "owner",
      "outputs": [
        {
          "internalType": "address",
          "name": "",
          "type": "address"
        }
      ],
      "stateMutability": "view",
      "type": "function"
    },
    {
      "inputs": [],
      "name": "renounceOwnership",
      "outputs": [],
      "stateMutability": "nonpayable",
      "type": "function"
    },
    {
      "inputs": [
        {
          "internalType": "uint256",
          "name": "",
          "type": "uint256"
        }
      ],
      "name": "stateEvents",
      "outputs": [
        {
          "internalType": "address",
          "name": "",
          "type": "address"
        }
      ],
      "stateMutability": "view",
      "type": "function"
    },
    {
      "inputs": [
        {
          "internalType": "address",
          "name": "newOwner",
          "type": "address"
        }
      ],
      "name": "transferOwnership",
      "outputs": [],
      "stateMutability": "nonpayable",
      "type": "function"
    }
  ],
  "bytecode": "0x60a060405234801561001057600080fd5b5033600073ffffffffffffffffffffffffffffffffffffffff168173ffffffffffffffffffffffffffffffffffffffff16036100845760006040517f1e4fbdf700000000000000000000000000000000000000000000000000000000815260040161007b9190610252565b60405180910390fd5b6100938161014060201b60201c565b5060006040516100a290610204565b604051809103906000f0801580156100be573d6000803e3d6000fd5b5090508073ffffffffffffffffffffffffffffffffffffffff1660808173ffffffffffffffffffffffffffffffffffffffff168152505060805173ffffffffffffffffffffffffffffffffffffffff167feff29a500106b45c353d2f7fbffacbcb3b527fefc846de6c62cdfdbb61fee81260405160405180910390a25061026d565b60008060009054906101000a900473ffffffffffffffffffffffffffffffffffffffff169050816000806101000a81548173ffffffffffffffffffffffffffffffffffffffff021916908373ffffffffffffffffffffffffffffffffffffffff1602179055508173ffffffffffffffffffffffffffffffffffffffff168173ffffffffffffffffffffffffffffffffffffffff167f8be0079c531659141344cd1fd0a4f28419497f9722a3daafe3b4186f6b6457e060405160405180910390a35050565b6161638061112b83390190565b600073ffffffffffffffffffffffffffffffffffffffff82169050919050565b600061023c82610211565b9050919050565b61024c81610231565b82525050565b60006020820190506102676000830184610243565b92915050565b608051610e9c61028f6000396000818161016401526101970152610e9c6000f3fe608060405234801561001057600080fd5b506004361061007d5760003560e01c8063715018a61161005b578063715018a6146100ee5780638da5cb5b146100f8578063a970177214610116578063f2fde38b146101465761007d565b806325c3b0411461008257806329e3bc2c146100a0578063404aa8f9146100d0575b600080fd5b61008a610162565b6040516100979190610784565b60405180910390f35b6100ba60048036038101906100b5919061092f565b610186565b6040516100c79190610784565b60405180910390f35b6100d8610354565b6040516100e59190610b27565b60405180910390f35b6100f66103e2565b005b6101006103f6565b60405161010d9190610784565b60405180910390f35b610130600480360381019061012b9190610b49565b61041f565b60405161013d9190610784565b60405180910390f35b610160600480360381019061015b9190610ba2565b61045e565b005b7f000000000000000000000000000000000000000000000000000000000000000081565b60006101906104e4565b60006101bb7f000000000000000000000000000000000000000000000000000000000000000061056b565b905060006040518061012001604052808d81526020018c81526020018b81526020018a81526020018981526020018881526020018781526020018681526020018581525090508173ffffffffffffffffffffffffffffffffffffffff16630333a39282336040518363ffffffff1660e01b815260040161023c929190610d37565b600060405180830381600087803b15801561025657600080fd5b505af115801561026a573d6000803e3d6000fd5b505050506001829080600181540180825580915050600190039060005260206000200160009091909190916101000a81548173ffffffffffffffffffffffffffffffffffffffff021916908373ffffffffffffffffffffffffffffffffffffffff1602179055503373ffffffffffffffffffffffffffffffffffffffff168273ffffffffffffffffffffffffffffffffffffffff167f2b48d4b8db7709c4ceba89aa377685569bdbed5d5697de213e7cd73e855ebf758e8d8d8d8c8c8c60405161033a9796959493929190610dc0565b60405180910390a381925050509998505050505050505050565b606060018054806020026020016040519081016040528092919081815260200182805480156103d857602002820191906000526020600020905b8160009054906101000a900473ffffffffffffffffffffffffffffffffffffffff1673ffffffffffffffffffffffffffffffffffffffff168152602001906001019080831161038e575b5050505050905090565b6103ea6104e4565b6103f4600061057f565b565b60008060009054906101000a900473ffffffffffffffffffffffffffffffffffffffff16905090565b6001818154811061042f57600080fd5b906000526020600020016000915054906101000a900473ffffffffffffffffffffffffffffffffffffffff1681565b6104666104e4565b600073ffffffffffffffffffffffffffffffffffffffff168173ffffffffffffffffffffffffffffffffffffffff16036104d85760006040517f1e4fbdf70000000000000000000000000000000000000000000000000000000081526004016104cf9190610784565b60405180910390fd5b6104e18161057f565b50565b6104ec610643565b73ffffffffffffffffffffffffffffffffffffffff1661050a6103f6565b73ffffffffffffffffffffffffffffffffffffffff16146105695761052d610643565b6040517f118cdaa70000000000000000000000000000000000000000000000000000000081526004016105609190610784565b60405180910390fd5b565b600061057882600061064b565b9050919050565b60008060009054906101000a900473ffffffffffffffffffffffffffffffffffffffff169050816000806101000a81548173ffffffffffffffffffffffffffffffffffffffff021916908373ffffffffffffffffffffffffffffffffffffffff1602179055508173ffffffffffffffffffffffffffffffffffffffff168173ffffffffffffffffffffffffffffffffffffffff167f8be0079c531659141344cd1fd0a4f28419497f9722a3daafe3b4186f6b6457e060405160405180910390a35050565b600033905090565b6000814710156106945747826040517fcf47918100000000000000000000000000000000000000000000000000000000815260040161068b929190610e3d565b60405180910390fd5b763d602d80600a3d3981f3363d3d373d3d3d363d730000008360601b60e81c176000526e5af43d82803e903d91602b57fd5bf38360781b176020526037600983f09050600073ffffffffffffffffffffffffffffffffffffffff168173ffffffffffffffffffffffffffffffffffffffff160361073d576040517fb06ebf3d00000000000000000000000000000000000000000000000000000000815260040160405180910390fd5b92915050565b600073ffffffffffffffffffffffffffffffffffffffff82169050919050565b600061076e82610743565b9050919050565b61077e81610763565b82525050565b60006020820190506107996000830184610775565b92915050565b6000604051905090565b600080fd5b600080fd5b600080fd5b600080fd5b6000601f19601f8301169050919050565b7f4e487b7100000000000000000000000000000000000000000000000000000000600052604160045260246000fd5b610806826107bd565b810181811067ffffffffffffffff82111715610825576108246107ce565b5b80604052505050565b600061083861079f565b905061084482826107fd565b919050565b600067ffffffffffffffff821115610864576108636107ce565b5b61086d826107bd565b9050602081019050919050565b82818337600083830152505050565b600061089c61089784610849565b61082e565b9050828152602081018484840111156108b8576108b76107b8565b5b6108c384828561087a565b509392505050565b600082601f8301126108e0576108df6107b3565b5b81356108f0848260208601610889565b91505092915050565b6000819050919050565b61090c816108f9565b811461091757600080fd5b50565b60008135905061092981610903565b92915050565b60008060008060008060008060006101208a8c031215610952576109516107a9565b5b60008a013567ffffffffffffffff8111156109705761096f6107ae565b5b61097c8c828d016108cb565b99505060208a013567ffffffffffffffff81111561099d5761099c6107ae565b5b6109a98c828d016108cb565b98505060406109ba8c828d0161091a565b97505060606109cb8c828d0161091a565b96505060808a013567ffffffffffffffff8111156109ec576109eb6107ae565b5b6109f88c828d016108cb565b95505060a08a013567ffffffffffffffff811115610a1957610a186107ae565b5b610a258c828d016108cb565b94505060c0610a368c828d0161091a565b93505060e0610a478c828d0161091a565b925050610100610a598c828d0161091a565b9150509295985092959850929598565b600081519050919050565b600082825260208201905092915050565b6000819050602082019050919050565b610a9e81610763565b82525050565b6000610ab08383610a95565b60208301905092915050565b6000602082019050919050565b6000610ad482610a69565b610ade8185610a74565b9350610ae983610a85565b8060005b83811015610b1a578151610b018882610aa4565b9750610b0c83610abc565b925050600181019050610aed565b5085935050505092915050565b60006020820190508181036000830152610b418184610ac9565b905092915050565b600060208284031215610b5f57610b5e6107a9565b5b6000610b6d8482850161091a565b91505092915050565b610b7f81610763565b8114610b8a57600080fd5b50565b600081359050610b9c81610b76565b92915050565b600060208284031215610bb857610bb76107a9565b5b6000610bc684828501610b8d565b91505092915050565b600081519050919050565b600082825260208201905092915050565b60005b83811015610c09578082015181840152602081019050610bee565b60008484015250505050565b6000610c2082610bcf565b610c2a8185610bda565b9350610c3a818560208601610beb565b610c43816107bd565b840191505092915050565b610c57816108f9565b82525050565b6000610120830160008301518482036000860152610c7b8282610c15565b91505060208301518482036020860152610c958282610c15565b9150506040830151610caa6040860182610c4e565b506060830151610cbd6060860182610c4e565b5060808301518482036080860152610cd58282610c15565b91505060a083015184820360a0860152610cef8282610c15565b91505060c0830151610d0460c0860182610c4e565b5060e0830151610d1760e0860182610c4e565b50610100830151610d2c610100860182610c4e565b508091505092915050565b60006040820190508181036000830152610d518185610c5d565b9050610d606020830184610775565b9392505050565b600082825260208201905092915050565b6000610d8382610bcf565b610d8d8185610d67565b9350610d9d818560208601610beb565b610da6816107bd565b840191505092915050565b610dba816108f9565b82525050565b600060e0820190508181036000830152610dda818a610d78565b9050610de96020830189610db1565b610df66040830188610db1565b8181036060830152610e088187610d78565b9050610e176080830186610db1565b610e2460a0830185610db1565b610e3160c0830184610db1565b98975050505050505050565b6000604082019050610e526000830185610db1565b610e5f6020830184610db1565b939250505056fea2646970667358221220729b6593f5a40705a87257af0995dd18b9a2fc214cd8fddf2973785b331c1fb464736f6c634300081c0033608060405234801561001057600080fd5b5061001f61002460201b60201c565b61018e565b600061003461012860201b60201c565b90508060000160089054906101000a900460ff161561007f576040517ff92ee8a900000000000000000000000000000000000000000000000000000000815260040160405180910390fd5b67ffffffffffffffff80168160000160009054906101000a900467ffffffffffffffff1667ffffffffffffffff16146101255767ffffffffffffffff8160000160006101000a81548167ffffffffffffffff021916908367ffffffffffffffff1602179055507fc7f505b2f371ae2175ee4913f4499e1f2633a7b5936321eed1cdaeb6115181d267ffffffffffffffff60405161011c9190610173565b60405180910390a15b50565b60007ff0c57e16840df040f15088dc2f81fe391c3923bec73e23a9662efc9c229c6a00905090565b600067ffffffffffffffff82169050919050565b61016d81610150565b82525050565b60006020820190506101886000830184610164565b92915050565b615fc68061019d6000396000f3fe6080604052600436106102675760003560e01c806367dd74ca11610144578063b5e80695116100b6578063d6bd5db11161007a578063d6bd5db114610918578063e0217cf614610943578063e985e9c51461096c578063edcf24ad146109a9578063f2fde38b146109e6578063fa52c7d814610a0f57610267565b8063b5e806951461082c578063b88d4fde14610857578063c23dc68f14610873578063c87b56dd146108b0578063d5abeb01146108ed57610267565b80638da5cb5b116101085780638da5cb5b1461071c5780638edc4cc61461074757806391d541ff1461077257806395d89b411461079b57806399a2557a146107c6578063a22cb4651461080357610267565b806367dd74ca146106325780636ccda0a61461064e57806370a082311461068b578063715018a6146106c85780638462151c146106df57610267565b806340a141ff116101dd5780634d238c8e116101a15780634d238c8e146104fa57806350b447121461052357806355f804b31461056457806356b6861c1461058d5780635bbb2177146105b85780636352211e146105f557610267565b806340a141ff1461044557806342842e0e1461046e5780634610c7451461048a578063463a94a5146104a65780634930b0c1146104d157610267565b8063095ea7b31161022f578063095ea7b3146103635780631209b1f61461037f578063150b7a02146103aa57806318160ddd146103e757806323b872dd146104125780633ccfd60b1461042e57610267565b8063019db0ff1461026c57806301ffc9a7146102955780630333a392146102d257806306fdde03146102fb578063081812fc14610326575b600080fd5b34801561027857600080fd5b50610293600480360381019061028e91906148a5565b610a4c565b005b3480156102a157600080fd5b506102bc60048036038101906102b7919061493d565b610cca565b6040516102c99190614985565b60405180910390f35b3480156102de57600080fd5b506102f960048036038101906102f49190614c9e565b610cdc565b005b34801561030757600080fd5b506103106110a2565b60405161031d9190614d79565b60405180910390f35b34801561033257600080fd5b5061034d60048036038101906103489190614d9b565b61113d565b60405161035a9190614dd7565b60405180910390f35b61037d60048036038101906103789190614df2565b6111a4565b005b34801561038b57600080fd5b506103946111b4565b6040516103a19190614e41565b60405180910390f35b3480156103b657600080fd5b506103d160048036038101906103cc9190614ebc565b6111ba565b6040516103de9190614f53565b60405180910390f35b3480156103f357600080fd5b506103fc6111cf565b6040516104099190614e41565b60405180910390f35b61042c60048036038101906104279190614f6e565b611237565b005b34801561043a57600080fd5b5061044361152e565b005b34801561045157600080fd5b5061046c60048036038101906104679190614fc1565b611596565b005b61048860048036038101906104839190614f6e565b6115f9565b005b6104a4600480360381019061049f9190614d9b565b611619565b005b3480156104b257600080fd5b506104bb6119ea565b6040516104c89190614e41565b60405180910390f35b3480156104dd57600080fd5b506104f860048036038101906104f39190614d9b565b6119f0565b005b34801561050657600080fd5b50610521600480360381019061051c9190614fc1565b611be3565b005b34801561052f57600080fd5b5061054a60048036038101906105459190614d9b565b611c46565b60405161055b959493929190615074565b60405180910390f35b34801561057057600080fd5b5061058b600480360381019061058691906150c7565b611ca9565b005b34801561059957600080fd5b506105a2611cc4565b6040516105af9190614e41565b60405180910390f35b3480156105c457600080fd5b506105df60048036038101906105da9190615166565b611cca565b6040516105ec9190615316565b60405180910390f35b34801561060157600080fd5b5061061c60048036038101906106179190614d9b565b611d2a565b6040516106299190614dd7565b60405180910390f35b61064c60048036038101906106479190614d9b565b611d3c565b005b34801561065a57600080fd5b5061067560048036038101906106709190614fc1565b612278565b6040516106829190614e41565b60405180910390f35b34801561069757600080fd5b506106b260048036038101906106ad9190614fc1565b612290565b6040516106bf9190614e41565b60405180910390f35b3480156106d457600080fd5b506106dd612330565b005b3480156106eb57600080fd5b5061070660048036038101906107019190614fc1565b612344565b60405161071391906153f6565b60405180910390f35b34801561072857600080fd5b506107316123bf565b60405161073e9190614dd7565b60405180910390f35b34801561075357600080fd5b5061075c6123f7565b6040516107699190614e41565b60405180910390f35b34801561077e57600080fd5b50610799600480360381019061079491906148a5565b6123fd565b005b3480156107a757600080fd5b506107b0612693565b6040516107bd9190614d79565b60405180910390f35b3480156107d257600080fd5b506107ed60048036038101906107e89190615418565b61272e565b6040516107fa91906153f6565b60405180910390f35b34801561080f57600080fd5b5061082a60048036038101906108259190615497565b612744565b005b34801561083857600080fd5b50610841612858565b60405161084e9190614d79565b60405180910390f35b610871600480360381019061086c9190615578565b6128e6565b005b34801561087f57600080fd5b5061089a60048036038101906108959190614d9b565b612938565b6040516108a79190615650565b60405180910390f35b3480156108bc57600080fd5b506108d760048036038101906108d29190614d9b565b6129ad565b6040516108e49190614d79565b60405180910390f35b3480156108f957600080fd5b50610902612a16565b60405161090f9190614e41565b60405180910390f35b34801561092457600080fd5b5061092d612a1c565b60405161093a9190614e41565b60405180910390f35b34801561094f57600080fd5b5061096a6004803603810190610965919061566b565b612a22565b005b34801561097857600080fd5b50610993600480360381019061098e91906156ab565b612d32565b6040516109a09190614985565b60405180910390f35b3480156109b557600080fd5b506109d060048036038101906109cb9190614fc1565b612dcf565b6040516109dd91906153f6565b60405180910390f35b3480156109f257600080fd5b50610a0d6004803603810190610a089190614fc1565b612e1e565b005b348015610a1b57600080fd5b50610a366004803603810190610a319190614fc1565b612ea4565b604051610a439190614985565b60405180910390f35b600960003373ffffffffffffffffffffffffffffffffffffffff1673ffffffffffffffffffffffffffffffffffffffff16815260200190815260200160002060009054906101000a900460ff16610acf576040517f2b61b79700000000000000000000000000000000000000000000000000000000815260040160405180910390fd5b610ad7612ec4565b60016002811115610aeb57610aea614fee565b5b600a600084815260200190815260200160002060000160009054906101000a900460ff166002811115610b2157610b20614fee565b5b14610b58576040517f4cb6d7c600000000000000000000000000000000000000000000000000000000815260040160405180910390fd5b610258600a600084815260200190815260200160002060010154610b7c919061571a565b4210610bb4576040517f528acf4f00000000000000000000000000000000000000000000000000000000815260040160405180910390fd5b60008282604051602001610bc9929190615790565b604051602081830303815290604052805190602001209050600a6000848152602001908152602001600020600401548114610c30576040517fb7b3378700000000000000000000000000000000000000000000000000000000815260040160405180910390fd5b6000801b600a6000858152602001908152602001600020600401819055506002600a600085815260200190815260200160002060000160006101000a81548160ff02191690836002811115610c8857610c87614fee565b5b0217905550827fd90e96dc598c9a693b0cefc073c80ff35fc409225fac97538341b0ed64e9cc7033604051610cbd9190614dd7565b60405180910390a2505050565b6000610cd582612f3d565b9050919050565b610ce4612fcf565b60000160019054906101000a900460ff16610d1857610d01612fcf565b60000160009054906101000a900460ff1615610d21565b610d20612ffc565b5b610d60576040517f08c379a0000000000000000000000000000000000000000000000000000000008152600401610d579061582e565b60405180910390fd5b6000610d6a612fcf565b60000160019054906101000a900460ff161590508015610dcd576001610d8e612fcf565b60000160016101000a81548160ff0219169083151502179055506001610db2612fcf565b60000160006101000a81548160ff0219169083151502179055505b6000610dd7613013565b905060008160000160089054906101000a900460ff1615905060008260000160009054906101000a900467ffffffffffffffff1690506000808267ffffffffffffffff16148015610e255750825b9050600060018367ffffffffffffffff16148015610e5a575060003073ffffffffffffffffffffffffffffffffffffffff163b145b905081158015610e68575080155b15610e9f576040517ff92ee8a900000000000000000000000000000000000000000000000000000000815260040160405180910390fd5b60018560000160006101000a81548167ffffffffffffffff021916908367ffffffffffffffff1602179055508315610eef5760018560000160086101000a81548160ff0219169083151502179055505b610ef761303b565b610f098860000151896020015161309d565b610f1287613103565b610f1a613117565b87604001516001819055508760600151600281905550876080015160039081610f439190615a5a565b508760a0015160049081610f579190615a5a565b508760c001516005819055508760e00151600681905550428861010001511015610fad576040517f8c5d9abe00000000000000000000000000000000000000000000000000000000815260040160405180910390fd5b8761010001516007819055506001600960008973ffffffffffffffffffffffffffffffffffffffff1673ffffffffffffffffffffffffffffffffffffffff16815260200190815260200160002060006101000a81548160ff021916908315150217905550831561106d5760008560000160086101000a81548160ff0219169083151502179055507fc7f505b2f371ae2175ee4913f4499e1f2633a7b5936321eed1cdaeb6115181d260016040516110649190615b67565b60405180910390a15b5050505050801561109d576000611082612fcf565b60000160016101000a81548160ff0219169083151502179055505b505050565b60606110ac613129565b60020180546110ba9061587d565b80601f01602080910402602001604051908101604052809291908181526020018280546110e69061587d565b80156111335780601f1061110857610100808354040283529160200191611133565b820191906000526020600020905b81548152906001019060200180831161111657829003601f168201915b5050505050905090565b600061114882613156565b61115d5761115c63cf4700e460e01b61321d565b5b611165613129565b600601600083815260200190815260200160002060000160009054906101000a900473ffffffffffffffffffffffffffffffffffffffff169050919050565b6111b082826001613227565b5050565b60015481565b600063150b7a0260e01b905095945050505050565b60006111d961335f565b6111e1613129565b600101546111ed613129565b60000154030390507fffffffffffffffffffffffffffffffffffffffffffffffffffffffffffffffff61121e613364565b146112345761122b613129565b60080154810190505b90565b60006112428261338c565b905073ffffffffffffffffffffffffffffffffffffffff8473ffffffffffffffffffffffffffffffffffffffff161693508373ffffffffffffffffffffffffffffffffffffffff168173ffffffffffffffffffffffffffffffffffffffff16146112b7576112b663a114810060e01b61321d565b5b6000806112c3846134c0565b915091506112d981876112d46134f0565b6134f8565b611304576112ee866112e96134f0565b612d32565b611303576113026359c896be60e01b61321d565b5b5b611311868686600161353c565b801561131c57600082555b611324613129565b60050160008773ffffffffffffffffffffffffffffffffffffffff1673ffffffffffffffffffffffffffffffffffffffff16815260200190815260200160002060008154600190039190508190555061137b613129565b60050160008673ffffffffffffffffffffffffffffffffffffffff1673ffffffffffffffffffffffffffffffffffffffff16815260200190815260200160002060008154600101919050819055506113fc856113d88888876138c7565b7c0200000000000000000000000000000000000000000000000000000000176138ef565b611404613129565b60040160008681526020019081526020016000208190555060007c02000000000000000000000000000000000000000000000000000000008416036114a65760006001850190506000611455613129565b600401600083815260200190815260200160002054036114a457611477613129565b6000015481146114a3578361148a613129565b6004016000838152602001908152602001600020819055505b5b505b600073ffffffffffffffffffffffffffffffffffffffff8673ffffffffffffffffffffffffffffffffffffffff161690508481887fddf252ad1be2c89b69c2b068fc378daa952ba7f163c4a11628f55a4df523b3ef600080a4600081036115185761151763ea553b3460e01b61321d565b5b611525878787600161391a565b50505050505050565b611536613920565b61153e6139a7565b6115466123bf565b73ffffffffffffffffffffffffffffffffffffffff166108fc479081150290604051600060405180830381858888f1935050505015801561158b573d6000803e3d6000fd5b506115946139fe565b565b61159e613920565b6000600960008373ffffffffffffffffffffffffffffffffffffffff1673ffffffffffffffffffffffffffffffffffffffff16815260200190815260200160002060006101000a81548160ff02191690831515021790555050565b611614838383604051806020016040528060008152506128e6565b505050565b6116216139a7565b611629612ec4565b6000816001546116399190615b82565b905080341015611675576040517f356680b700000000000000000000000000000000000000000000000000000000815260040160405180910390fd5b600254826116816111cf565b61168b919061571a565b11156116c3576040517f8a164f6300000000000000000000000000000000000000000000000000000000815260040160405180910390fd5b60055482600860003373ffffffffffffffffffffffffffffffffffffffff1673ffffffffffffffffffffffffffffffffffffffff16815260200190815260200160002054611711919061571a565b1115611749576040517f53fad44600000000000000000000000000000000000000000000000000000000815260040160405180910390fd5b81600860003373ffffffffffffffffffffffffffffffffffffffff1673ffffffffffffffffffffffffffffffffffffffff1681526020019081526020016000206000828254611798919061571a565b9250508190555060006117a96111cf565b90506117b53384613a17565b60005b838110156118df57600081836117ce919061571a565b90506040518060a00160405280600060028111156117ef576117ee614fee565b5b81526020016000815260200160008152602001600073ffffffffffffffffffffffffffffffffffffffff1681526020016000801b815250600a600083815260200190815260200160002060008201518160000160006101000a81548160ff0219169083600281111561186457611863614fee565b5b0217905550602082015181600101556040820151816002015560608201518160030160006101000a81548173ffffffffffffffffffffffffffffffffffffffff021916908373ffffffffffffffffffffffffffffffffffffffff160217905550608082015181600401559050505080806001019150506117b8565b503373ffffffffffffffffffffffffffffffffffffffff167f64f70b72cc0e9e53852e2481e43068b546390216d3d062dbe11d9ecf7580835f846040516119269190614e41565b60405180910390a2813411156119dd57600082346119449190615bc4565b90503373ffffffffffffffffffffffffffffffffffffffff166108fc829081150290604051600060405180830381858888f1935050505015801561198c573d6000803e3d6000fd5b503373ffffffffffffffffffffffffffffffffffffffff167fa171b6942063c6f2800ce40a780edce37baa2b618571b11eedd1e69e626e7d76826040516119d39190614e41565b60405180910390a2505b50506119e76139fe565b50565b60055481565b611a40816000803373ffffffffffffffffffffffffffffffffffffffff1673ffffffffffffffffffffffffffffffffffffffff168152602001908152602001600020613a3590919063ffffffff16565b611a76576040517f94ad34e400000000000000000000000000000000000000000000000000000000815260040160405180910390fd5b6000600a600083815260200190815260200160002060030160006101000a81548173ffffffffffffffffffffffffffffffffffffffff021916908373ffffffffffffffffffffffffffffffffffffffff1602179055506000600a600083815260200190815260200160002060020181905550611b38816000803373ffffffffffffffffffffffffffffffffffffffff1673ffffffffffffffffffffffffffffffffffffffff168152602001908152602001600020613a4f90919063ffffffff16565b503073ffffffffffffffffffffffffffffffffffffffff166342842e0e3033846040518463ffffffff1660e01b8152600401611b7693929190615bf8565b600060405180830381600087803b158015611b9057600080fd5b505af1158015611ba4573d6000803e3d6000fd5b50505050807fb3ff8f36767fd1eacff2dd8c2746e2dac680b68fc6e179dd2fc703fd650d5df533604051611bd89190614dd7565b60405180910390a250565b611beb613920565b6001600960008373ffffffffffffffffffffffffffffffffffffffff1673ffffffffffffffffffffffffffffffffffffffff16815260200190815260200160002060006101000a81548160ff02191690831515021790555050565b600a6020528060005260406000206000915090508060000160009054906101000a900460ff16908060010154908060020154908060030160009054906101000a900473ffffffffffffffffffffffffffffffffffffffff16908060040154905085565b611cb1613920565b8060049081611cc09190615a5a565b5050565b61025881565b606080600084849050905060405191508082528060051b90508060208301016040525b60008114611d1f5760006020820391508186013590506000611d0e82612938565b905080836020860101525050611ced565b819250505092915050565b6000611d358261338c565b9050919050565b611d446139a7565b611d4c612ec4565b3373ffffffffffffffffffffffffffffffffffffffff16600a600083815260200190815260200160002060030160009054906101000a900473ffffffffffffffffffffffffffffffffffffffff1673ffffffffffffffffffffffffffffffffffffffff1603611de7576040517fd7b4c64400000000000000000000000000000000000000000000000000000000815260040160405180910390fd5b600073ffffffffffffffffffffffffffffffffffffffff16600a600083815260200190815260200160002060030160009054906101000a900473ffffffffffffffffffffffffffffffffffffffff1673ffffffffffffffffffffffffffffffffffffffff1603611e83576040517f4f9476da00000000000000000000000000000000000000000000000000000000815260040160405180910390fd5b6005546001600860003373ffffffffffffffffffffffffffffffffffffffff1673ffffffffffffffffffffffffffffffffffffffff16815260200190815260200160002054611ed2919061571a565b1115611f0a576040517f53fad44600000000000000000000000000000000000000000000000000000000815260040160405180910390fd5b600a600082815260200190815260200160002060020154341015611f5a576040517f356680b700000000000000000000000000000000000000000000000000000000815260040160405180910390fd5b6000600a60008381526020019081526020016000206002015490506000600a600084815260200190815260200160002060030160009054906101000a900473ffffffffffffffffffffffffffffffffffffffff1690506001600860003373ffffffffffffffffffffffffffffffffffffffff1673ffffffffffffffffffffffffffffffffffffffff1681526020019081526020016000206000828254612000919061571a565b925050819055506000600a6000858152602001908152602001600020600201819055506000600a600085815260200190815260200160002060030160006101000a81548173ffffffffffffffffffffffffffffffffffffffff021916908373ffffffffffffffffffffffffffffffffffffffff1602179055506120c9836000808473ffffffffffffffffffffffffffffffffffffffff1673ffffffffffffffffffffffffffffffffffffffff168152602001908152602001600020613a4f90919063ffffffff16565b503073ffffffffffffffffffffffffffffffffffffffff166342842e0e3033866040518463ffffffff1660e01b815260040161210793929190615bf8565b600060405180830381600087803b15801561212157600080fd5b505af1158015612135573d6000803e3d6000fd5b505050508073ffffffffffffffffffffffffffffffffffffffff166108fc839081150290604051600060405180830381858888f1935050505015801561217f573d6000803e3d6000fd5b508134111561222f57600082346121969190615bc4565b90503373ffffffffffffffffffffffffffffffffffffffff166108fc829081150290604051600060405180830381858888f193505050501580156121de573d6000803e3d6000fd5b503373ffffffffffffffffffffffffffffffffffffffff167fa171b6942063c6f2800ce40a780edce37baa2b618571b11eedd1e69e626e7d76826040516122259190614e41565b60405180910390a2505b827f44f19a44b8c509adc281ec35927694f6d25e501d0de1764890ab0637b8dcda4883833360405161226393929190615c2f565b60405180910390a250506122756139fe565b50565b60086020528060005260406000206000915090505481565b60008073ffffffffffffffffffffffffffffffffffffffff168273ffffffffffffffffffffffffffffffffffffffff16036122d6576122d5638f4eb60460e01b61321d565b5b67ffffffffffffffff6122e7613129565b60050160008473ffffffffffffffffffffffffffffffffffffffff1673ffffffffffffffffffffffffffffffffffffffff16815260200190815260200160002054169050919050565b612338613920565b6123426000613a69565b565b60607fffffffffffffffffffffffffffffffffffffffffffffffffffffffffffffffff61236f613364565b146123855761238463bdba09d760e01b61321d565b5b600061238f61335f565b9050600061239b613b40565b905060608183146123b4576123b1858484613b53565b90505b809350505050919050565b6000806123ca613d0f565b90508060000160009054906101000a900473ffffffffffffffffffffffffffffffffffffffff1691505090565b60065481565b612405612ec4565b3373ffffffffffffffffffffffffffffffffffffffff1661242583611d2a565b73ffffffffffffffffffffffffffffffffffffffff1614612472576040517fe18d39ad00000000000000000000000000000000000000000000000000000000815260040160405180910390fd5b6000801b81036124ae576040517fb7b3378700000000000000000000000000000000000000000000000000000000815260040160405180910390fd5b600160028111156124c2576124c1614fee565b5b600a600084815260200190815260200160002060000160009054906101000a900460ff1660028111156124f8576124f7614fee565b5b0361255e57610258600a600084815260200190815260200160002060010154612521919061571a565b4211612559576040517ff39b32cb00000000000000000000000000000000000000000000000000000000815260040160405180910390fd5b61261f565b6000600281111561257257612571614fee565b5b600a600084815260200190815260200160002060000160009054906101000a900460ff1660028111156125a8576125a7614fee565b5b146125df576040517fb61bb86a00000000000000000000000000000000000000000000000000000000815260040160405180910390fd5b6001600a600084815260200190815260200160002060000160006101000a81548160ff0219169083600281111561261957612618614fee565b5b02179055505b80600a60008481526020019081526020016000206004018190555042600a600084815260200190815260200160002060010181905550817fd5150cb470badd3a5aab07ab0d8dbad1b512edc632e12c6bf8cbd64c9bdbed134283604051612687929190615c66565b60405180910390a25050565b606061269d613129565b60030180546126ab9061587d565b80601f01602080910402602001604051908101604052809291908181526020018280546126d79061587d565b80156127245780601f106126f957610100808354040283529160200191612724565b820191906000526020600020905b81548152906001019060200180831161270757829003601f168201915b5050505050905090565b606061273b848484613b53565b90509392505050565b8061274d613129565b600701600061275a6134f0565b73ffffffffffffffffffffffffffffffffffffffff1673ffffffffffffffffffffffffffffffffffffffff16815260200190815260200160002060008473ffffffffffffffffffffffffffffffffffffffff1673ffffffffffffffffffffffffffffffffffffffff16815260200190815260200160002060006101000a81548160ff0219169083151502179055508173ffffffffffffffffffffffffffffffffffffffff166128076134f0565b73ffffffffffffffffffffffffffffffffffffffff167f17307eab39ab6107e8899845ad3d59bd9653f200f220920489ca2b5937696c318360405161284c9190614985565b60405180910390a35050565b600380546128659061587d565b80601f01602080910402602001604051908101604052809291908181526020018280546128919061587d565b80156128de5780601f106128b3576101008083540402835291602001916128de565b820191906000526020600020905b8154815290600101906020018083116128c157829003601f168201915b505050505081565b6128f1848484611237565b60008373ffffffffffffffffffffffffffffffffffffffff163b146129325761291c84848484613d37565b6129315761293063d1a57ed660e01b61321d565b5b5b50505050565b6129406147d6565b61294861335f565b82106129a757612956613364565b82111561296d5761296682613e66565b90506129a8565b612975613b40565b8210156129a6575b61298682613e9a565b612996578160019003915061297d565b61299f82613e66565b90506129a8565b5b5b919050565b60606129b882613156565b6129ee576040517fceea21b600000000000000000000000000000000000000000000000000000000815260040160405180910390fd5b6004604051602001612a009190615d1d565b6040516020818303038152906040529050919050565b60025481565b60075481565b612a2a612ec4565b612a3382613156565b612a69576040517fceea21b600000000000000000000000000000000000000000000000000000000815260040160405180910390fd5b60646082600154612a7a9190615b82565b612a849190615d63565b811115612abd576040517f24fe119200000000000000000000000000000000000000000000000000000000815260040160405180910390fd5b612b0d826000803373ffffffffffffffffffffffffffffffffffffffff1673ffffffffffffffffffffffffffffffffffffffff168152602001908152602001600020613a3590919063ffffffff16565b15612b325780600a600084815260200190815260200160002060020181905550612cf6565b3373ffffffffffffffffffffffffffffffffffffffff16612b5283611d2a565b73ffffffffffffffffffffffffffffffffffffffff1614612b9f576040517fe18d39ad00000000000000000000000000000000000000000000000000000000815260040160405180910390fd5b612ba882613ec3565b60006002811115612bbc57612bbb614fee565b5b600a600084815260200190815260200160002060000160009054906101000a900460ff166002811115612bf257612bf1614fee565b5b14612c29576040517fb61bb86a00000000000000000000000000000000000000000000000000000000815260040160405180910390fd5b33600a600084815260200190815260200160002060030160006101000a81548173ffffffffffffffffffffffffffffffffffffffff021916908373ffffffffffffffffffffffffffffffffffffffff16021790555080600a600084815260200190815260200160002060020181905550612ce9826000803373ffffffffffffffffffffffffffffffffffffffff1673ffffffffffffffffffffffffffffffffffffffff168152602001908152602001600020613ff190919063ffffffff16565b50612cf53330846115f9565b5b817f8fb4e2cb8424a126acfd629b3562dfe455465ec828c79c890db1e1ad1d69751082604051612d269190614e41565b60405180910390a25050565b6000612d3c613129565b60070160008473ffffffffffffffffffffffffffffffffffffffff1673ffffffffffffffffffffffffffffffffffffffff16815260200190815260200160002060008373ffffffffffffffffffffffffffffffffffffffff1673ffffffffffffffffffffffffffffffffffffffff16815260200190815260200160002060009054906101000a900460ff16905092915050565b6060612e176000808473ffffffffffffffffffffffffffffffffffffffff1673ffffffffffffffffffffffffffffffffffffffff16815260200190815260200160002061400b565b9050919050565b612e26613920565b600073ffffffffffffffffffffffffffffffffffffffff168173ffffffffffffffffffffffffffffffffffffffff1603612e985760006040517f1e4fbdf7000000000000000000000000000000000000000000000000000000008152600401612e8f9190614dd7565b60405180910390fd5b612ea181613a69565b50565b60096020528060005260406000206000915054906101000a900460ff1681565b6007544210612eff576040517f1963c37d00000000000000000000000000000000000000000000000000000000815260040160405180910390fd5b600654421015612f3b576040517f61935eac00000000000000000000000000000000000000000000000000000000815260040160405180910390fd5b565b60006301ffc9a760e01b827bffffffffffffffffffffffffffffffffffffffffffffffffffffffff19161480612f9857506380ac58cd60e01b827bffffffffffffffffffffffffffffffffffffffffffffffffffffffff1916145b80612fc85750635b5e139f60e01b827bffffffffffffffffffffffffffffffffffffffffffffffffffffffff1916145b9050919050565b6000807fee151c8401928dc223602bb187aff91b9a56c7cae5476ef1b3287b085a16c85f90508091505090565b6000803090506000813b9050600081149250505090565b60007ff0c57e16840df040f15088dc2f81fe391c3923bec73e23a9662efc9c229c6a00905090565b613043612fcf565b60000160019054906101000a900460ff16613093576040517f08c379a000000000000000000000000000000000000000000000000000000000815260040161308a90615e06565b60405180910390fd5b61309b61402c565b565b6130a5612fcf565b60000160019054906101000a900460ff166130f5576040517f08c379a00000000000000000000000000000000000000000000000000000000081526004016130ec90615e06565b60405180910390fd5b6130ff8282614086565b5050565b61310b614152565b61311481614192565b50565b61311f614152565b613127614218565b565b6000807f2569078dfb4b0305704d3008e7403993ae9601b85f7ae5e742de3de8f8011c4090508091505090565b60008161316161335f565b116132175761316e613364565b8211156131a15761319a613180613129565b600401600084815260200190815260200160002054614239565b9050613218565b6131a9613129565b600001548210156132165760005b60006131c1613129565b600401600085815260200190815260200160002054915081036131ef57826131e890615e26565b92506131b7565b60007c01000000000000000000000000000000000000000000000000000000008216149150505b5b5b919050565b8060005260046000fd5b600061323283611d2a565b905081801561327457508073ffffffffffffffffffffffffffffffffffffffff1661325b6134f0565b73ffffffffffffffffffffffffffffffffffffffff1614155b156132a05761328a816132856134f0565b612d32565b61329f5761329e63cfb3b94260e01b61321d565b5b5b836132a9613129565b600601600085815260200190815260200160002060000160006101000a81548173ffffffffffffffffffffffffffffffffffffffff021916908373ffffffffffffffffffffffffffffffffffffffff160217905550828473ffffffffffffffffffffffffffffffffffffffff168273ffffffffffffffffffffffffffffffffffffffff167f8c5be1e5ebec7d5bd14f71427d1e84f3dd0314c0f7b2291e5b200ac8c7c3b92560405160405180910390a450505050565b600090565b60007fffffffffffffffffffffffffffffffffffffffffffffffffffffffffffffffff905090565b60008161339761335f565b116134aa576133a4613129565b60040160008381526020019081526020016000205490506133c3613364565b8211156133e8576133d381614239565b6134bb576133e763df2d9b4260e01b61321d565b5b60008103613481576133f8613129565b6000015482106134135761341263df2d9b4260e01b61321d565b5b5b61341c613129565b600401600083600190039350838152602001908152602001600020549050600081031561347c5760007c0100000000000000000000000000000000000000000000000000000000821603156134bb5761347b63df2d9b4260e01b61321d565b5b613414565b60007c0100000000000000000000000000000000000000000000000000000000821603156134bb575b6134ba63df2d9b4260e01b61321d565b5b919050565b60008060006134cd613129565b600601600085815260200190815260200160002090508092508254915050915091565b600033905090565b600073ffffffffffffffffffffffffffffffffffffffff8316925073ffffffffffffffffffffffffffffffffffffffff821691508382148383141790509392505050565b600073ffffffffffffffffffffffffffffffffffffffff168473ffffffffffffffffffffffffffffffffffffffff16141580156135795750600181145b156138c15761358782613ec3565b600073ffffffffffffffffffffffffffffffffffffffff16600a600084815260200190815260200160002060030160009054906101000a900473ffffffffffffffffffffffffffffffffffffffff1673ffffffffffffffffffffffffffffffffffffffff161461376757600a600083815260200190815260200160002060030160009054906101000a900473ffffffffffffffffffffffffffffffffffffffff1673ffffffffffffffffffffffffffffffffffffffff168473ffffffffffffffffffffffffffffffffffffffff1614801561368d57503073ffffffffffffffffffffffffffffffffffffffff168373ffffffffffffffffffffffffffffffffffffffff16145b8061373057503073ffffffffffffffffffffffffffffffffffffffff168473ffffffffffffffffffffffffffffffffffffffff1614801561372f5750600a600083815260200190815260200160002060030160009054906101000a900473ffffffffffffffffffffffffffffffffffffffff1673ffffffffffffffffffffffffffffffffffffffff168373ffffffffffffffffffffffffffffffffffffffff16145b5b613766576040517f94ad34e400000000000000000000000000000000000000000000000000000000815260040160405180910390fd5b5b600754421080156137a457503073ffffffffffffffffffffffffffffffffffffffff168473ffffffffffffffffffffffffffffffffffffffff1614155b80156137dc57503073ffffffffffffffffffffffffffffffffffffffff168373ffffffffffffffffffffffffffffffffffffffff1614155b156138c0576005546001600860008673ffffffffffffffffffffffffffffffffffffffff1673ffffffffffffffffffffffffffffffffffffffff16815260200190815260200160002054613830919061571a565b1115613868576040517f53fad44600000000000000000000000000000000000000000000000000000000815260040160405180910390fd5b6001600860008573ffffffffffffffffffffffffffffffffffffffff1673ffffffffffffffffffffffffffffffffffffffff16815260200190815260200160002060008282546138b8919061571a565b925050819055505b5b50505050565b60008060e883901c905060e86138de86868461427a565b62ffffff16901b9150509392505050565b600073ffffffffffffffffffffffffffffffffffffffff83169250814260a01b178317905092915050565b50505050565b613928614283565b73ffffffffffffffffffffffffffffffffffffffff166139466123bf565b73ffffffffffffffffffffffffffffffffffffffff16146139a557613969614283565b6040517f118cdaa700000000000000000000000000000000000000000000000000000000815260040161399c9190614dd7565b60405180910390fd5b565b60006139b161428b565b905060028160000154036139f1576040517f3ee5aeb500000000000000000000000000000000000000000000000000000000815260040160405180910390fd5b6002816000018190555050565b6000613a0861428b565b90506001816000018190555050565b613a318282604051806020016040528060008152506142b3565b5050565b6000613a47836000018360001b614342565b905092915050565b6000613a61836000018360001b614365565b905092915050565b6000613a73613d0f565b905060008160000160009054906101000a900473ffffffffffffffffffffffffffffffffffffffff169050828260000160006101000a81548173ffffffffffffffffffffffffffffffffffffffff021916908373ffffffffffffffffffffffffffffffffffffffff1602179055508273ffffffffffffffffffffffffffffffffffffffff168173ffffffffffffffffffffffffffffffffffffffff167f8be0079c531659141344cd1fd0a4f28419497f9722a3daafe3b4186f6b6457e060405160405180910390a3505050565b6000613b4a613129565b60000154905090565b6060818310613b6d57613b6c6332c1995a60e01b61321d565b5b613b7561335f565b831015613b8757613b8461335f565b92505b6000613b91613b40565b905060007fffffffffffffffffffffffffffffffffffffffffffffffffffffffffffffffff613bbe613364565b03613bc95781613bcb565b835b9050808410613bd8578093505b6000613be387612290565b9050848610613bf157600090505b60008114613d05578086860311613c085785850390505b600060405194506001820160051b85019050806040526000613c2988612938565b905060008160400151613c3e57816000015190505b60005b7fffffffffffffffffffffffffffffffffffffffffffffffffffffffffffffffff613c6a613364565b14613c9957868a03613c84576001613c80613364565b0199505b613c8c613364565b8a1115613c9857600091505b5b613ca28a613e66565b9250604083015160008114613cba5760009250613ce0565b835115613cc657835192505b8b831860601b613cdf576001820191508a8260051b8a01525b5b5060018a01995083604052888a1480613cf857508481145b15613c4157808852505050505b5050509392505050565b60007f9016d09d72d40fdae2fd8ceac6b6234c7706214fd39c1cd1e609a0528c199300905090565b60008373ffffffffffffffffffffffffffffffffffffffff1663150b7a02613d5d6134f0565b8786866040518563ffffffff1660e01b8152600401613d7f9493929190615ea4565b6020604051808303816000875af1925050508015613dbb57506040513d601f19601f82011682018060405250810190613db89190615f05565b60015b613e13573d8060008114613deb576040519150601f19603f3d011682016040523d82523d6000602084013e613df0565b606091505b506000815103613e0b57613e0a63d1a57ed660e01b61321d565b5b805181602001fd5b63150b7a0260e01b7bffffffffffffffffffffffffffffffffffffffffffffffffffffffff1916817bffffffffffffffffffffffffffffffffffffffffffffffffffffffff191614915050949350505050565b613e6e6147d6565b613e93613e79613129565b600401600084815260200190815260200160002054614479565b9050919050565b600080613ea5613129565b60040160008481526020019081526020016000205414159050919050565b60016002811115613ed757613ed6614fee565b5b600a600083815260200190815260200160002060000160009054906101000a900460ff166002811115613f0d57613f0c614fee565b5b03613fee5742610258600a600084815260200190815260200160002060010154613f37919061571a565b1015613fbb576000600a600083815260200190815260200160002060000160006101000a81548160ff02191690836002811115613f7757613f76614fee565b5b02179055506000600a6000838152602001908152602001600020600101819055506000801b600a600083815260200190815260200160002060040181905550613fed565b6040517ff39b32cb00000000000000000000000000000000000000000000000000000000815260040160405180910390fd5b5b50565b6000614003836000018360001b61452f565b905092915050565b6060600061401b8360000161459f565b905060608190508092505050919050565b614034612fcf565b60000160019054906101000a900460ff16614084576040517f08c379a000000000000000000000000000000000000000000000000000000000815260040161407b90615e06565b60405180910390fd5b565b61408e612fcf565b60000160019054906101000a900460ff166140de576040517f08c379a00000000000000000000000000000000000000000000000000000000081526004016140d590615e06565b60405180910390fd5b816140e7613129565b60020190816140f69190615a5a565b5080614100613129565b600301908161410f9190615a5a565b5061411861335f565b614120613129565b6000018190555061412f61335f565b614137613364565b101561414e5761414d63fed8210f60e01b61321d565b5b5050565b61415a6145fb565b614190576040517fd7e6bcf800000000000000000000000000000000000000000000000000000000815260040160405180910390fd5b565b61419a614152565b600073ffffffffffffffffffffffffffffffffffffffff168173ffffffffffffffffffffffffffffffffffffffff160361420c5760006040517f1e4fbdf70000000000000000000000000000000000000000000000000000000081526004016142039190614dd7565b60405180910390fd5b61421581613a69565b50565b614220614152565b600061422a61428b565b90506001816000018190555050565b60007c0100000000000000000000000000000000000000000000000000000000821673ffffffffffffffffffffffffffffffffffffffff8316119050919050565b60009392505050565b600033905090565b60007f9b779b17422d0df92223018b32b4d1fa46e071723d6817e2486d003becc55f00905090565b6142bd838361461b565b60008373ffffffffffffffffffffffffffffffffffffffff163b1461433d5760006142e6613129565b600001549050600083820390505b6143076000868380600101945086613d37565b61431c5761431b63d1a57ed660e01b61321d565b5b8181106142f4578161432c613129565b600001541461433a57600080fd5b50505b505050565b600080836001016000848152602001908152602001600020541415905092915050565b6000808360010160008481526020019081526020016000205490506000811461446d5760006001826143979190615bc4565b90506000600186600001805490506143af9190615bc4565b905080821461441e5760008660000182815481106143d0576143cf615f32565b5b90600052602060002001549050808760000184815481106143f4576143f3615f32565b5b90600052602060002001819055508387600101600083815260200190815260200160002081905550505b8560000180548061443257614431615f61565b5b600190038181906000526020600020016000905590558560010160008681526020019081526020016000206000905560019350505050614473565b60009150505b92915050565b6144816147d6565b81816000019073ffffffffffffffffffffffffffffffffffffffff16908173ffffffffffffffffffffffffffffffffffffffff168152505060a082901c816020019067ffffffffffffffff16908167ffffffffffffffff168152505060007c01000000000000000000000000000000000000000000000000000000008316141581604001901515908115158152505060e882901c816060019062ffffff16908162ffffff1681525050919050565b600061453b8383614342565b614594578260000182908060018154018082558091505060019003906000526020600020016000909190919091505582600001805490508360010160008481526020019081526020016000208190555060019050614599565b600090505b92915050565b6060816000018054806020026020016040519081016040528092919081815260200182805480156145ef57602002820191906000526020600020905b8154815260200190600101908083116145db575b50505050509050919050565b6000614605613013565b60000160089054906101000a900460ff16905090565b6000614625613129565b600001549050600082036146445761464363b562e8dd60e01b61321d565b5b614651600084838561353c565b6146718361466260008660006138c7565b61466b856147c6565b176138ef565b614679613129565b600401600083815260200190815260200160002081905550600160406001901b1782026146a4613129565b60050160008573ffffffffffffffffffffffffffffffffffffffff1673ffffffffffffffffffffffffffffffffffffffff16815260200190815260200160002060008282540192505081905550600073ffffffffffffffffffffffffffffffffffffffff8473ffffffffffffffffffffffffffffffffffffffff161690506000810361473b5761473a632e07630060e01b61321d565b5b60008383019050600083905061474f613364565b60018303111561476a576147696381647e3a60e01b61321d565b5b5b808360007fddf252ad1be2c89b69c2b068fc378daa952ba7f163c4a11628f55a4df523b3ef600080a481816001019150810361476b57816147aa613129565b600001819055505050506147c1600084838561391a565b505050565b60006001821460e11b9050919050565b6040518060800160405280600073ffffffffffffffffffffffffffffffffffffffff168152602001600067ffffffffffffffff168152602001600015158152602001600062ffffff1681525090565b6000604051905090565b600080fd5b600080fd5b6000819050919050565b61484c81614839565b811461485757600080fd5b50565b60008135905061486981614843565b92915050565b6000819050919050565b6148828161486f565b811461488d57600080fd5b50565b60008135905061489f81614879565b92915050565b600080604083850312156148bc576148bb61482f565b5b60006148ca8582860161485a565b92505060206148db85828601614890565b9150509250929050565b60007fffffffff0000000000000000000000000000000000000000000000000000000082169050919050565b61491a816148e5565b811461492557600080fd5b50565b60008135905061493781614911565b92915050565b6000602082840312156149535761495261482f565b5b600061496184828501614928565b91505092915050565b60008115159050919050565b61497f8161496a565b82525050565b600060208201905061499a6000830184614976565b92915050565b600080fd5b6000601f19601f8301169050919050565b7f4e487b7100000000000000000000000000000000000000000000000000000000600052604160045260246000fd5b6149ee826149a5565b810181811067ffffffffffffffff82111715614a0d57614a0c6149b6565b5b80604052505050565b6000614a20614825565b9050614a2c82826149e5565b919050565b600080fd5b600080fd5b600080fd5b600067ffffffffffffffff821115614a5b57614a5a6149b6565b5b614a64826149a5565b9050602081019050919050565b82818337600083830152505050565b6000614a93614a8e84614a40565b614a16565b905082815260208101848484011115614aaf57614aae614a3b565b5b614aba848285614a71565b509392505050565b600082601f830112614ad757614ad6614a36565b5b8135614ae7848260208601614a80565b91505092915050565b60006101208284031215614b0757614b066149a0565b5b614b12610120614a16565b9050600082013567ffffffffffffffff811115614b3257614b31614a31565b5b614b3e84828501614ac2565b600083015250602082013567ffffffffffffffff811115614b6257614b61614a31565b5b614b6e84828501614ac2565b6020830152506040614b828482850161485a565b6040830152506060614b968482850161485a565b606083015250608082013567ffffffffffffffff811115614bba57614bb9614a31565b5b614bc684828501614ac2565b60808301525060a082013567ffffffffffffffff811115614bea57614be9614a31565b5b614bf684828501614ac2565b60a08301525060c0614c0a8482850161485a565b60c08301525060e0614c1e8482850161485a565b60e083015250610100614c338482850161485a565b6101008301525092915050565b600073ffffffffffffffffffffffffffffffffffffffff82169050919050565b6000614c6b82614c40565b9050919050565b614c7b81614c60565b8114614c8657600080fd5b50565b600081359050614c9881614c72565b92915050565b60008060408385031215614cb557614cb461482f565b5b600083013567ffffffffffffffff811115614cd357614cd2614834565b5b614cdf85828601614af0565b9250506020614cf085828601614c89565b9150509250929050565b600081519050919050565b600082825260208201905092915050565b60005b83811015614d34578082015181840152602081019050614d19565b60008484015250505050565b6000614d4b82614cfa565b614d558185614d05565b9350614d65818560208601614d16565b614d6e816149a5565b840191505092915050565b60006020820190508181036000830152614d938184614d40565b905092915050565b600060208284031215614db157614db061482f565b5b6000614dbf8482850161485a565b91505092915050565b614dd181614c60565b82525050565b6000602082019050614dec6000830184614dc8565b92915050565b60008060408385031215614e0957614e0861482f565b5b6000614e1785828601614c89565b9250506020614e288582860161485a565b9150509250929050565b614e3b81614839565b82525050565b6000602082019050614e566000830184614e32565b92915050565b600080fd5b600080fd5b60008083601f840112614e7c57614e7b614a36565b5b8235905067ffffffffffffffff811115614e9957614e98614e5c565b5b602083019150836001820283011115614eb557614eb4614e61565b5b9250929050565b600080600080600060808688031215614ed857614ed761482f565b5b6000614ee688828901614c89565b9550506020614ef788828901614c89565b9450506040614f088882890161485a565b935050606086013567ffffffffffffffff811115614f2957614f28614834565b5b614f3588828901614e66565b92509250509295509295909350565b614f4d816148e5565b82525050565b6000602082019050614f686000830184614f44565b92915050565b600080600060608486031215614f8757614f8661482f565b5b6000614f9586828701614c89565b9350506020614fa686828701614c89565b9250506040614fb78682870161485a565b9150509250925092565b600060208284031215614fd757614fd661482f565b5b6000614fe584828501614c89565b91505092915050565b7f4e487b7100000000000000000000000000000000000000000000000000000000600052602160045260246000fd5b6003811061502e5761502d614fee565b5b50565b600081905061503f8261501d565b919050565b600061504f82615031565b9050919050565b61505f81615044565b82525050565b61506e8161486f565b82525050565b600060a0820190506150896000830188615056565b6150966020830187614e32565b6150a36040830186614e32565b6150b06060830185614dc8565b6150bd6080830184615065565b9695505050505050565b6000602082840312156150dd576150dc61482f565b5b600082013567ffffffffffffffff8111156150fb576150fa614834565b5b61510784828501614ac2565b91505092915050565b60008083601f84011261512657615125614a36565b5b8235905067ffffffffffffffff81111561514357615142614e5c565b5b60208301915083602082028301111561515f5761515e614e61565b5b9250929050565b6000806020838503121561517d5761517c61482f565b5b600083013567ffffffffffffffff81111561519b5761519a614834565b5b6151a785828601615110565b92509250509250929050565b600081519050919050565b600082825260208201905092915050565b6000819050602082019050919050565b6151e881614c60565b82525050565b600067ffffffffffffffff82169050919050565b61520b816151ee565b82525050565b61521a8161496a565b82525050565b600062ffffff82169050919050565b61523881615220565b82525050565b60808201600082015161525460008501826151df565b5060208201516152676020850182615202565b50604082015161527a6040850182615211565b50606082015161528d606085018261522f565b50505050565b600061529f838361523e565b60808301905092915050565b6000602082019050919050565b60006152c3826151b3565b6152cd81856151be565b93506152d8836151cf565b8060005b838110156153095781516152f08882615293565b97506152fb836152ab565b9250506001810190506152dc565b5085935050505092915050565b6000602082019050818103600083015261533081846152b8565b905092915050565b600081519050919050565b600082825260208201905092915050565b6000819050602082019050919050565b61536d81614839565b82525050565b600061537f8383615364565b60208301905092915050565b6000602082019050919050565b60006153a382615338565b6153ad8185615343565b93506153b883615354565b8060005b838110156153e95781516153d08882615373565b97506153db8361538b565b9250506001810190506153bc565b5085935050505092915050565b600060208201905081810360008301526154108184615398565b905092915050565b6000806000606084860312156154315761543061482f565b5b600061543f86828701614c89565b93505060206154508682870161485a565b92505060406154618682870161485a565b9150509250925092565b6154748161496a565b811461547f57600080fd5b50565b6000813590506154918161546b565b92915050565b600080604083850312156154ae576154ad61482f565b5b60006154bc85828601614c89565b92505060206154cd85828601615482565b9150509250929050565b600067ffffffffffffffff8211156154f2576154f16149b6565b5b6154fb826149a5565b9050602081019050919050565b600061551b615516846154d7565b614a16565b90508281526020810184848401111561553757615536614a3b565b5b615542848285614a71565b509392505050565b600082601f83011261555f5761555e614a36565b5b813561556f848260208601615508565b91505092915050565b600080600080608085870312156155925761559161482f565b5b60006155a087828801614c89565b94505060206155b187828801614c89565b93505060406155c28782880161485a565b925050606085013567ffffffffffffffff8111156155e3576155e2614834565b5b6155ef8782880161554a565b91505092959194509250565b60808201600082015161561160008501826151df565b5060208201516156246020850182615202565b5060408201516156376040850182615211565b50606082015161564a606085018261522f565b50505050565b600060808201905061566560008301846155fb565b92915050565b600080604083850312156156825761568161482f565b5b60006156908582860161485a565b92505060206156a18582860161485a565b9150509250929050565b600080604083850312156156c2576156c161482f565b5b60006156d085828601614c89565b92505060206156e185828601614c89565b9150509250929050565b7f4e487b7100000000000000000000000000000000000000000000000000000000600052601160045260246000fd5b600061572582614839565b915061573083614839565b9250828201905080821115615748576157476156eb565b5b92915050565b6000819050919050565b61576961576482614839565b61574e565b82525050565b6000819050919050565b61578a6157858261486f565b61576f565b82525050565b600061579c8285615758565b6020820191506157ac8284615779565b6020820191508190509392505050565b7f455243373231415f5f496e697469616c697a61626c653a20636f6e747261637460008201527f20697320616c726561647920696e697469616c697a6564000000000000000000602082015250565b6000615818603783614d05565b9150615823826157bc565b604082019050919050565b600060208201905081810360008301526158478161580b565b9050919050565b7f4e487b7100000000000000000000000000000000000000000000000000000000600052602260045260246000fd5b6000600282049050600182168061589557607f821691505b6020821081036158a8576158a761584e565b5b50919050565b60008190508160005260206000209050919050565b60006020601f8301049050919050565b600082821b905092915050565b6000600883026159107fffffffffffffffffffffffffffffffffffffffffffffffffffffffffffffffff826158d3565b61591a86836158d3565b95508019841693508086168417925050509392505050565b6000819050919050565b600061595761595261594d84614839565b615932565b614839565b9050919050565b6000819050919050565b6159718361593c565b61598561597d8261595e565b8484546158e0565b825550505050565b600090565b61599a61598d565b6159a5818484615968565b505050565b5b818110156159c9576159be600082615992565b6001810190506159ab565b5050565b601f821115615a0e576159df816158ae565b6159e8846158c3565b810160208510156159f7578190505b615a0b615a03856158c3565b8301826159aa565b50505b505050565b600082821c905092915050565b6000615a3160001984600802615a13565b1980831691505092915050565b6000615a4a8383615a20565b9150826002028217905092915050565b615a6382614cfa565b67ffffffffffffffff811115615a7c57615a7b6149b6565b5b615a86825461587d565b615a918282856159cd565b600060209050601f831160018114615ac45760008415615ab2578287015190505b615abc8582615a3e565b865550615b24565b601f198416615ad2866158ae565b60005b82811015615afa57848901518255600182019150602085019450602081019050615ad5565b86831015615b175784890151615b13601f891682615a20565b8355505b6001600288020188555050505b505050505050565b6000819050919050565b6000615b51615b4c615b4784615b2c565b615932565b6151ee565b9050919050565b615b6181615b36565b82525050565b6000602082019050615b7c6000830184615b58565b92915050565b6000615b8d82614839565b9150615b9883614839565b9250828202615ba681614839565b91508282048414831517615bbd57615bbc6156eb565b5b5092915050565b6000615bcf82614839565b9150615bda83614839565b9250828203905081811115615bf257615bf16156eb565b5b92915050565b6000606082019050615c0d6000830186614dc8565b615c1a6020830185614dc8565b615c276040830184614e32565b949350505050565b6000606082019050615c446000830186614e32565b615c516020830185614dc8565b615c5e6040830184614dc8565b949350505050565b6000604082019050615c7b6000830185614e32565b615c886020830184615065565b9392505050565b600081905092915050565b60008154615ca78161587d565b615cb18186615c8f565b94506001821660008114615ccc5760018114615ce157615d14565b60ff1983168652811515820286019350615d14565b615cea856158ae565b60005b83811015615d0c57815481890152600182019150602081019050615ced565b838801955050505b50505092915050565b6000615d298284615c9a565b915081905092915050565b7f4e487b7100000000000000000000000000000000000000000000000000000000600052601260045260246000fd5b6000615d6e82614839565b9150615d7983614839565b925082615d8957615d88615d34565b5b828204905092915050565b7f455243373231415f5f496e697469616c697a61626c653a20636f6e747261637460008201527f206973206e6f7420696e697469616c697a696e67000000000000000000000000602082015250565b6000615df0603483614d05565b9150615dfb82615d94565b604082019050919050565b60006020820190508181036000830152615e1f81615de3565b9050919050565b6000615e3182614839565b915060008203615e4457615e436156eb565b5b600182039050919050565b600081519050919050565b600082825260208201905092915050565b6000615e7682615e4f565b615e808185615e5a565b9350615e90818560208601614d16565b615e99816149a5565b840191505092915050565b6000608082019050615eb96000830187614dc8565b615ec66020830186614dc8565b615ed36040830185614e32565b8181036060830152615ee58184615e6b565b905095945050505050565b600081519050615eff81614911565b92915050565b600060208284031215615f1b57615f1a61482f565b5b6000615f2984828501615ef0565b91505092915050565b7f4e487b7100000000000000000000000000000000000000000000000000000000600052603260045260246000fd5b7f4e487b7100000000000000000000000000000000000000000000000000000000600052603160045260246000fdfea2646970667358221220e312eab31969eba6bfae94df8d00b0d4a8e91ad4aa4cc4d5e8eb4fbdc3dbcf4c64736f6c634300081c0033",
  "linkReferences": {},
  "deployedLinkReferences": {}
}