{
    "_format": "hh-sol-artifact-1",
    "contractName": "EventTicketLogic",
    "sourceName": "contracts/EventTicketLogic.sol",
    "abi": [
        {
            "inputs": [],
            "stateMutability": "nonpayable",
            "type": "constructor"
        },
        {
            "inputs": [],
            "name": "ApprovalCallerNotOwnerNorApproved",
            "type": "error"
        },
        {
            "inputs": [],
            "name": "ApprovalQueryForNonexistentToken",
            "type": "error"
        },
        {
            "inputs": [],
            "name": "BalanceQueryForZeroAddress",
            "type": "error"
        },
        {
            "inputs": [],
            "name": "CancelSaleError",
            "type": "error"
        },
        {
            "inputs": [],
            "name": "CancelSaleRequired",
            "type": "error"
        },
        {
            "inputs": [],
            "name": "EventEndBeforeNow",
            "type": "error"
        },
        {
            "inputs": [],
            "name": "EventEnded",
            "type": "error"
        },
        {
            "inputs": [],
            "name": "InsufficientFunds",
            "type": "error"
        },
        {
            "inputs": [],
            "name": "InvalidCommit",
            "type": "error"
        },
        {
            "inputs": [],
            "name": "InvalidInitialization",
            "type": "error"
        },
        {
            "inputs": [],
            "name": "InvalidQueryRange",
            "type": "error"
        },
        {
            "inputs": [],
            "name": "MaxSupplyExceeded",
            "type": "error"
        },
        {
            "inputs": [],
            "name": "MintERC2309QuantityExceedsLimit",
            "type": "error"
        },
        {
            "inputs": [],
            "name": "MintToZeroAddress",
            "type": "error"
        },
        {
            "inputs": [],
            "name": "MintZeroQuantity",
            "type": "error"
        },
        {
            "inputs": [],
            "name": "NoSelfBuy",
            "type": "error"
        },
        {
            "inputs": [],
            "name": "NotAValidator",
            "type": "error"
        },
        {
            "inputs": [],
            "name": "NotCompatibleWithSpotMints",
            "type": "error"
        },
        {
            "inputs": [],
            "name": "NotInitializing",
            "type": "error"
        },
        {
            "inputs": [],
            "name": "NotStartedYet",
            "type": "error"
        },
        {
            "inputs": [],
            "name": "NotTicketOwner",
            "type": "error"
        },
        {
            "inputs": [
                {
                    "internalType": "address",
                    "name": "owner",
                    "type": "address"
                }
            ],
            "name": "OwnableInvalidOwner",
            "type": "error"
        },
        {
            "inputs": [
                {
                    "internalType": "address",
                    "name": "account",
                    "type": "address"
                }
            ],
            "name": "OwnableUnauthorizedAccount",
            "type": "error"
        },
        {
            "inputs": [],
            "name": "OwnerQueryForNonexistentToken",
            "type": "error"
        },
        {
            "inputs": [],
            "name": "OwnershipNotInitializedForExtraData",
            "type": "error"
        },
        {
            "inputs": [],
            "name": "PendingNotOver",
            "type": "error"
        },
        {
            "inputs": [],
            "name": "PriceTooHigh",
            "type": "error"
        },
        {
            "inputs": [],
            "name": "RedeemExpired",
            "type": "error"
        },
        {
            "inputs": [],
            "name": "ReentrancyGuardReentrantCall",
            "type": "error"
        },
        {
            "inputs": [],
            "name": "SequentialMintExceedsLimit",
            "type": "error"
        },
        {
            "inputs": [],
            "name": "SequentialUpToTooSmall",
            "type": "error"
        },
        {
            "inputs": [],
            "name": "SpotMintTokenIdTooSmall",
            "type": "error"
        },
        {
            "inputs": [],
            "name": "TicketLimitReached",
            "type": "error"
        },
        {
            "inputs": [],
            "name": "TicketNotActive",
            "type": "error"
        },
        {
            "inputs": [],
            "name": "TicketNotForSale",
            "type": "error"
        },
        {
            "inputs": [],
            "name": "TicketNotPending",
            "type": "error"
        },
        {
            "inputs": [],
            "name": "TokenAlreadyExists",
            "type": "error"
        },
        {
            "inputs": [],
            "name": "TokenDoesNotExist",
            "type": "error"
        },
        {
            "inputs": [],
            "name": "TransferCallerNotOwnerNorApproved",
            "type": "error"
        },
        {
            "inputs": [],
            "name": "TransferFromIncorrectOwner",
            "type": "error"
        },
        {
            "inputs": [],
            "name": "TransferToNonERC721ReceiverImplementer",
            "type": "error"
        },
        {
            "inputs": [],
            "name": "TransferToZeroAddress",
            "type": "error"
        },
        {
            "inputs": [],
            "name": "URIQueryForNonexistentToken",
            "type": "error"
        },
        {
            "anonymous": false,
            "inputs": [
                {
                    "indexed": true,
                    "internalType": "address",
                    "name": "owner",
                    "type": "address"
                },
                {
                    "indexed": true,
                    "internalType": "address",
                    "name": "approved",
                    "type": "address"
                },
                {
                    "indexed": true,
                    "internalType": "uint256",
                    "name": "tokenId",
                    "type": "uint256"
                }
            ],
            "name": "Approval",
            "type": "event"
        },
        {
            "anonymous": false,
            "inputs": [
                {
                    "indexed": true,
                    "internalType": "address",
                    "name": "owner",
                    "type": "address"
                },
                {
                    "indexed": true,
                    "internalType": "address",
                    "name": "operator",
                    "type": "address"
                },
                {
                    "indexed": false,
                    "internalType": "bool",
                    "name": "approved",
                    "type": "bool"
                }
            ],
            "name": "ApprovalForAll",
            "type": "event"
        },
        {
            "anonymous": false,
            "inputs": [
                {
                    "indexed": true,
                    "internalType": "uint256",
                    "name": "fromTokenId",
                    "type": "uint256"
                },
                {
                    "indexed": false,
                    "internalType": "uint256",
                    "name": "toTokenId",
                    "type": "uint256"
                },
                {
                    "indexed": true,
                    "internalType": "address",
                    "name": "from",
                    "type": "address"
                },
                {
                    "indexed": true,
                    "internalType": "address",
                    "name": "to",
                    "type": "address"
                }
            ],
            "name": "ConsecutiveTransfer",
            "type": "event"
        },
        {
            "anonymous": false,
            "inputs": [
                {
                    "indexed": false,
                    "internalType": "uint64",
                    "name": "version",
                    "type": "uint64"
                }
            ],
            "name": "Initialized",
            "type": "event"
        },
        {
            "anonymous": false,
            "inputs": [
                {
                    "indexed": true,
                    "internalType": "address",
                    "name": "previousOwner",
                    "type": "address"
                },
                {
                    "indexed": true,
                    "internalType": "address",
                    "name": "newOwner",
                    "type": "address"
                }
            ],
            "name": "OwnershipTransferred",
            "type": "event"
        },
        {
            "anonymous": false,
            "inputs": [
                {
                    "indexed": true,
                    "internalType": "uint256",
                    "name": "tokenID",
                    "type": "uint256"
                },
                {
                    "indexed": false,
                    "internalType": "uint256",
                    "name": "timestamp",
                    "type": "uint256"
                },
                {
                    "indexed": false,
                    "internalType": "bytes32",
                    "name": "commitHash",
                    "type": "bytes32"
                }
            ],
            "name": "PendingSuccess",
            "type": "event"
        },
        {
            "anonymous": false,
            "inputs": [
                {
                    "indexed": true,
                    "internalType": "uint256",
                    "name": "tokenID",
                    "type": "uint256"
                },
                {
                    "indexed": false,
                    "internalType": "address",
                    "name": "validator",
                    "type": "address"
                }
            ],
            "name": "RedeemedSuccess",
            "type": "event"
        },
        {
            "anonymous": false,
            "inputs": [
                {
                    "indexed": true,
                    "internalType": "address",
                    "name": "user",
                    "type": "address"
                },
                {
                    "indexed": false,
                    "internalType": "uint256",
                    "name": "refund",
                    "type": "uint256"
                }
            ],
            "name": "RefundIssued",
            "type": "event"
        },
        {
            "anonymous": false,
            "inputs": [
                {
                    "indexed": true,
                    "internalType": "uint256",
                    "name": "tokenID",
                    "type": "uint256"
                },
                {
                    "indexed": false,
                    "internalType": "address",
                    "name": "ticketOwner",
                    "type": "address"
                }
            ],
            "name": "TicketCancelledForSale",
            "type": "event"
        },
        {
            "anonymous": false,
            "inputs": [
                {
                    "indexed": true,
                    "internalType": "uint256",
                    "name": "tokenID",
                    "type": "uint256"
                },
                {
                    "indexed": false,
                    "internalType": "uint256",
                    "name": "salePrice",
                    "type": "uint256"
                }
            ],
            "name": "TicketForSale",
            "type": "event"
        },
        {
            "anonymous": false,
            "inputs": [
                {
                    "indexed": true,
                    "internalType": "uint256",
                    "name": "tokenID",
                    "type": "uint256"
                },
                {
                    "indexed": false,
                    "internalType": "uint256",
                    "name": "salePrice",
                    "type": "uint256"
                },
                {
                    "indexed": false,
                    "internalType": "address",
                    "name": "seller",
                    "type": "address"
                },
                {
                    "indexed": false,
                    "internalType": "address",
                    "name": "buyer",
                    "type": "address"
                }
            ],
            "name": "TicketSold",
            "type": "event"
        },
        {
            "anonymous": false,
            "inputs": [
                {
                    "indexed": true,
                    "internalType": "address",
                    "name": "user",
                    "type": "address"
                },
                {
                    "indexed": false,
                    "internalType": "uint256",
                    "name": "quantity",
                    "type": "uint256"
                }
            ],
            "name": "TicketsMinted",
            "type": "event"
        },
        {
            "anonymous": false,
            "inputs": [
                {
                    "indexed": true,
                    "internalType": "address",
                    "name": "from",
                    "type": "address"
                },
                {
                    "indexed": true,
                    "internalType": "address",
                    "name": "to",
                    "type": "address"
                },
                {
                    "indexed": true,
                    "internalType": "uint256",
                    "name": "tokenId",
                    "type": "uint256"
                }
            ],
            "name": "Transfer",
            "type": "event"
        },
        {
            "inputs": [
                {
                    "internalType": "uint256",
                    "name": "tokenID",
                    "type": "uint256"
                },
                {
                    "internalType": "uint256",
                    "name": "price",
                    "type": "uint256"
                }
            ],
            "name": "addTicketsForSale",
            "outputs": [],
            "stateMutability": "nonpayable",
            "type": "function"
        },
        {
            "inputs": [
                {
                    "internalType": "address",
                    "name": "newValidator",
                    "type": "address"
                }
            ],
            "name": "addValidator",
            "outputs": [],
            "stateMutability": "nonpayable",
            "type": "function"
        },
        {
            "inputs": [
                {
                    "internalType": "address",
                    "name": "to",
                    "type": "address"
                },
                {
                    "internalType": "uint256",
                    "name": "tokenId",
                    "type": "uint256"
                }
            ],
            "name": "approve",
            "outputs": [],
            "stateMutability": "payable",
            "type": "function"
        },
        {
            "inputs": [
                {
                    "internalType": "address",
                    "name": "owner",
                    "type": "address"
                }
            ],
            "name": "balanceOf",
            "outputs": [
                {
                    "internalType": "uint256",
                    "name": "",
                    "type": "uint256"
                }
            ],
            "stateMutability": "view",
            "type": "function"
        },
        {
            "inputs": [
                {
                    "internalType": "uint256",
                    "name": "tokenID",
                    "type": "uint256"
                }
            ],
            "name": "buyTicket",
            "outputs": [],
            "stateMutability": "payable",
            "type": "function"
        },
        {
            "inputs": [
                {
                    "internalType": "uint256",
                    "name": "tokenID",
                    "type": "uint256"
                }
            ],
            "name": "cancelTicketForSale",
            "outputs": [],
            "stateMutability": "nonpayable",
            "type": "function"
        },
        {
            "inputs": [],
            "name": "eventEndTime",
            "outputs": [
                {
                    "internalType": "uint256",
                    "name": "",
                    "type": "uint256"
                }
            ],
            "stateMutability": "view",
            "type": "function"
        },
        {
            "inputs": [],
            "name": "eventURI",
            "outputs": [
                {
                    "internalType": "string",
                    "name": "",
                    "type": "string"
                }
            ],
            "stateMutability": "view",
            "type": "function"
        },
        {
            "inputs": [
                {
                    "internalType": "uint256",
                    "name": "tokenId",
                    "type": "uint256"
                }
            ],
            "name": "explicitOwnershipOf",
            "outputs": [
                {
                    "components": [
                        {
                            "internalType": "address",
                            "name": "addr",
                            "type": "address"
                        },
                        {
                            "internalType": "uint64",
                            "name": "startTimestamp",
                            "type": "uint64"
                        },
                        {
                            "internalType": "bool",
                            "name": "burned",
                            "type": "bool"
                        },
                        {
                            "internalType": "uint24",
                            "name": "extraData",
                            "type": "uint24"
                        }
                    ],
                    "internalType": "struct IERC721AUpgradeable.TokenOwnership",
                    "name": "ownership",
                    "type": "tuple"
                }
            ],
            "stateMutability": "view",
            "type": "function"
        },
        {
            "inputs": [
                {
                    "internalType": "uint256[]",
                    "name": "tokenIds",
                    "type": "uint256[]"
                }
            ],
            "name": "explicitOwnershipsOf",
            "outputs": [
                {
                    "components": [
                        {
                            "internalType": "address",
                            "name": "addr",
                            "type": "address"
                        },
                        {
                            "internalType": "uint64",
                            "name": "startTimestamp",
                            "type": "uint64"
                        },
                        {
                            "internalType": "bool",
                            "name": "burned",
                            "type": "bool"
                        },
                        {
                            "internalType": "uint24",
                            "name": "extraData",
                            "type": "uint24"
                        }
                    ],
                    "internalType": "struct IERC721AUpgradeable.TokenOwnership[]",
                    "name": "",
                    "type": "tuple[]"
                }
            ],
            "stateMutability": "view",
            "type": "function"
        },
        {
            "inputs": [
                {
                    "internalType": "uint256",
                    "name": "tokenId",
                    "type": "uint256"
                }
            ],
            "name": "getApproved",
            "outputs": [
                {
                    "internalType": "address",
                    "name": "",
                    "type": "address"
                }
            ],
            "stateMutability": "view",
            "type": "function"
        },
        {
            "inputs": [
                {
                    "components": [
                        {
                            "internalType": "string",
                            "name": "name",
                            "type": "string"
                        },
                        {
                            "internalType": "string",
                            "name": "symbol",
                            "type": "string"
                        },
                        {
                            "internalType": "uint256",
                            "name": "ticketPrice",
                            "type": "uint256"
                        },
                        {
                            "internalType": "uint256",
                            "name": "maxSupply",
                            "type": "uint256"
                        },
                        {
                            "internalType": "string",
                            "name": "eventURI",
                            "type": "string"
                        },
                        {
                            "internalType": "string",
                            "name": "baseTokenURI",
                            "type": "string"
                        },
                        {
                            "internalType": "uint256",
                            "name": "maxTicketsPerAddress",
                            "type": "uint256"
                        },
                        {
                            "internalType": "bool",
                            "name": "useTimeLimit",
                            "type": "bool"
                        },
                        {
                            "internalType": "uint256",
                            "name": "startPurchaseTime",
                            "type": "uint256"
                        },
                        {
                            "internalType": "uint256",
                            "name": "eventEndTime",
                            "type": "uint256"
                        }
                    ],
                    "internalType": "struct EventTicketLogic.EventConfig",
                    "name": "config",
                    "type": "tuple"
                },
                {
                    "internalType": "address",
                    "name": "_owner",
                    "type": "address"
                }
            ],
            "name": "initialize",
            "outputs": [],
            "stateMutability": "nonpayable",
            "type": "function"
        },
        {
            "inputs": [
                {
                    "internalType": "address",
                    "name": "owner",
                    "type": "address"
                },
                {
                    "internalType": "address",
                    "name": "operator",
                    "type": "address"
                }
            ],
            "name": "isApprovedForAll",
            "outputs": [
                {
                    "internalType": "bool",
                    "name": "",
                    "type": "bool"
                }
            ],
            "stateMutability": "view",
            "type": "function"
        },
        {
            "inputs": [],
            "name": "maxSupply",
            "outputs": [
                {
                    "internalType": "uint256",
                    "name": "",
                    "type": "uint256"
                }
            ],
            "stateMutability": "view",
            "type": "function"
        },
        {
            "inputs": [],
            "name": "maxTicketsPerAddress",
            "outputs": [
                {
                    "internalType": "uint256",
                    "name": "",
                    "type": "uint256"
                }
            ],
            "stateMutability": "view",
            "type": "function"
        },
        {
            "inputs": [
                {
                    "internalType": "uint256",
                    "name": "quantity",
                    "type": "uint256"
                }
            ],
            "name": "mintTickets",
            "outputs": [],
            "stateMutability": "payable",
            "type": "function"
        },
        {
            "inputs": [],
            "name": "name",
            "outputs": [
                {
                    "internalType": "string",
                    "name": "",
                    "type": "string"
                }
            ],
            "stateMutability": "view",
            "type": "function"
        },
        {
            "inputs": [
                {
                    "internalType": "address",
                    "name": "",
                    "type": "address"
                },
                {
                    "internalType": "address",
                    "name": "",
                    "type": "address"
                },
                {
                    "internalType": "uint256",
                    "name": "",
                    "type": "uint256"
                },
                {
                    "internalType": "bytes",
                    "name": "",
                    "type": "bytes"
                }
            ],
            "name": "onERC721Received",
            "outputs": [
                {
                    "internalType": "bytes4",
                    "name": "",
                    "type": "bytes4"
                }
            ],
            "stateMutability": "pure",
            "type": "function"
        },
        {
            "inputs": [],
            "name": "owner",
            "outputs": [
                {
                    "internalType": "address",
                    "name": "",
                    "type": "address"
                }
            ],
            "stateMutability": "view",
            "type": "function"
        },
        {
            "inputs": [
                {
                    "internalType": "uint256",
                    "name": "tokenId",
                    "type": "uint256"
                }
            ],
            "name": "ownerOf",
            "outputs": [
                {
                    "internalType": "address",
                    "name": "",
                    "type": "address"
                }
            ],
            "stateMutability": "view",
            "type": "function"
        },
        {
            "inputs": [],
            "name": "pendingDuration",
            "outputs": [
                {
                    "internalType": "uint256",
                    "name": "",
                    "type": "uint256"
                }
            ],
            "stateMutability": "view",
            "type": "function"
        },
        {
            "inputs": [
                {
                    "internalType": "address",
                    "name": "validator",
                    "type": "address"
                }
            ],
            "name": "removeValidator",
            "outputs": [],
            "stateMutability": "nonpayable",
            "type": "function"
        },
        {
            "inputs": [],
            "name": "renounceOwnership",
            "outputs": [],
            "stateMutability": "nonpayable",
            "type": "function"
        },
        {
            "inputs": [
                {
                    "internalType": "address",
                    "name": "from",
                    "type": "address"
                },
                {
                    "internalType": "address",
                    "name": "to",
                    "type": "address"
                },
                {
                    "internalType": "uint256",
                    "name": "tokenId",
                    "type": "uint256"
                }
            ],
            "name": "safeTransferFrom",
            "outputs": [],
            "stateMutability": "payable",
            "type": "function"
        },
        {
            "inputs": [
                {
                    "internalType": "address",
                    "name": "from",
                    "type": "address"
                },
                {
                    "internalType": "address",
                    "name": "to",
                    "type": "address"
                },
                {
                    "internalType": "uint256",
                    "name": "tokenId",
                    "type": "uint256"
                },
                {
                    "internalType": "bytes",
                    "name": "_data",
                    "type": "bytes"
                }
            ],
            "name": "safeTransferFrom",
            "outputs": [],
            "stateMutability": "payable",
            "type": "function"
        },
        {
            "inputs": [
                {
                    "internalType": "address",
                    "name": "operator",
                    "type": "address"
                },
                {
                    "internalType": "bool",
                    "name": "approved",
                    "type": "bool"
                }
            ],
            "name": "setApprovalForAll",
            "outputs": [],
            "stateMutability": "nonpayable",
            "type": "function"
        },
        {
            "inputs": [
                {
                    "internalType": "string",
                    "name": "_baseTokenURI",
                    "type": "string"
                }
            ],
            "name": "setBaseURI",
            "outputs": [],
            "stateMutability": "nonpayable",
            "type": "function"
        },
        {
            "inputs": [
                {
                    "internalType": "uint256",
                    "name": "tokenID",
                    "type": "uint256"
                },
                {
                    "internalType": "bytes32",
                    "name": "commitHash",
                    "type": "bytes32"
                }
            ],
            "name": "setPendingToTKT",
            "outputs": [],
            "stateMutability": "nonpayable",
            "type": "function"
        },
        {
            "inputs": [
                {
                    "internalType": "uint256",
                    "name": "tokenID",
                    "type": "uint256"
                },
                {
                    "internalType": "bytes32",
                    "name": "secretNonce",
                    "type": "bytes32"
                }
            ],
            "name": "setRedeemedToTKT",
            "outputs": [],
            "stateMutability": "nonpayable",
            "type": "function"
        },
        {
            "inputs": [],
            "name": "startPurchaseTime",
            "outputs": [
                {
                    "internalType": "uint256",
                    "name": "",
                    "type": "uint256"
                }
            ],
            "stateMutability": "view",
            "type": "function"
        },
        {
            "inputs": [
                {
                    "internalType": "bytes4",
                    "name": "interfaceId",
                    "type": "bytes4"
                }
            ],
            "name": "supportsInterface",
            "outputs": [
                {
                    "internalType": "bool",
                    "name": "",
                    "type": "bool"
                }
            ],
            "stateMutability": "view",
            "type": "function"
        },
        {
            "inputs": [],
            "name": "symbol",
            "outputs": [
                {
                    "internalType": "string",
                    "name": "",
                    "type": "string"
                }
            ],
            "stateMutability": "view",
            "type": "function"
        },
        {
            "inputs": [],
            "name": "ticketPrice",
            "outputs": [
                {
                    "internalType": "uint256",
                    "name": "",
                    "type": "uint256"
                }
            ],
            "stateMutability": "view",
            "type": "function"
        },
        {
            "inputs": [
                {
                    "internalType": "uint256",
                    "name": "",
                    "type": "uint256"
                }
            ],
            "name": "tickets",
            "outputs": [
                {
                    "internalType": "enum EventTicketLogic.TicketStatus",
                    "name": "status",
                    "type": "uint8"
                },
                {
                    "internalType": "uint256",
                    "name": "pendingSince",
                    "type": "uint256"
                },
                {
                    "internalType": "uint256",
                    "name": "salePrice",
                    "type": "uint256"
                },
                {
                    "internalType": "address",
                    "name": "seller",
                    "type": "address"
                },
                {
                    "internalType": "bytes32",
                    "name": "commitHash",
                    "type": "bytes32"
                }
            ],
            "stateMutability": "view",
            "type": "function"
        },
        {
            "inputs": [
                {
                    "internalType": "address",
                    "name": "user",
                    "type": "address"
                }
            ],
            "name": "ticketsForSaleOfUsr",
            "outputs": [
                {
                    "internalType": "uint256[]",
                    "name": "",
                    "type": "uint256[]"
                }
            ],
            "stateMutability": "view",
            "type": "function"
        },
        {
            "inputs": [
                {
                    "internalType": "address",
                    "name": "",
                    "type": "address"
                }
            ],
            "name": "ticketsPurchased",
            "outputs": [
                {
                    "internalType": "uint256",
                    "name": "",
                    "type": "uint256"
                }
            ],
            "stateMutability": "view",
            "type": "function"
        },
        {
            "inputs": [
                {
                    "internalType": "uint256",
                    "name": "tokenID",
                    "type": "uint256"
                }
            ],
            "name": "tokenURI",
            "outputs": [
                {
                    "internalType": "string",
                    "name": "",
                    "type": "string"
                }
            ],
            "stateMutability": "view",
            "type": "function"
        },
        {
            "inputs": [
                {
                    "internalType": "address",
                    "name": "owner",
                    "type": "address"
                }
            ],
            "name": "tokensOfOwner",
            "outputs": [
                {
                    "internalType": "uint256[]",
                    "name": "",
                    "type": "uint256[]"
                }
            ],
            "stateMutability": "view",
            "type": "function"
        },
        {
            "inputs": [
                {
                    "internalType": "address",
                    "name": "owner",
                    "type": "address"
                },
                {
                    "internalType": "uint256",
                    "name": "start",
                    "type": "uint256"
                },
                {
                    "internalType": "uint256",
                    "name": "stop",
                    "type": "uint256"
                }
            ],
            "name": "tokensOfOwnerIn",
            "outputs": [
                {
                    "internalType": "uint256[]",
                    "name": "",
                    "type": "uint256[]"
                }
            ],
            "stateMutability": "view",
            "type": "function"
        },
        {
            "inputs": [],
            "name": "totalSupply",
            "outputs": [
                {
                    "internalType": "uint256",
                    "name": "result",
                    "type": "uint256"
                }
            ],
            "stateMutability": "view",
            "type": "function"
        },
        {
            "inputs": [
                {
                    "internalType": "address",
                    "name": "from",
                    "type": "address"
                },
                {
                    "internalType": "address",
                    "name": "to",
                    "type": "address"
                },
                {
                    "internalType": "uint256",
                    "name": "tokenId",
                    "type": "uint256"
                }
            ],
            "name": "transferFrom",
            "outputs": [],
            "stateMutability": "payable",
            "type": "function"
        },
        {
            "inputs": [
                {
                    "internalType": "address",
                    "name": "newOwner",
                    "type": "address"
                }
            ],
            "name": "transferOwnership",
            "outputs": [],
            "stateMutability": "nonpayable",
            "type": "function"
        },
        {
            "inputs": [],
            "name": "useTimeLimit",
            "outputs": [
                {
                    "internalType": "bool",
                    "name": "",
                    "type": "bool"
                }
            ],
            "stateMutability": "view",
            "type": "function"
        },
        {
            "inputs": [
                {
                    "internalType": "address",
                    "name": "",
                    "type": "address"
                }
            ],
            "name": "validators",
            "outputs": [
                {
                    "internalType": "bool",
                    "name": "",
                    "type": "bool"
                }
            ],
            "stateMutability": "view",
            "type": "function"
        },
        {
            "inputs": [],
            "name": "withdraw",
            "outputs": [],
            "stateMutability": "nonpayable",
            "type": "function"
        }
    ],
    "bytecode": "0x608060405234801561001057600080fd5b5061001f61002460201b60201c565b61018e565b600061003461012860201b60201c565b90508060000160089054906101000a900460ff161561007f576040517ff92ee8a900000000000000000000000000000000000000000000000000000000815260040160405180910390fd5b67ffffffffffffffff80168160000160009054906101000a900467ffffffffffffffff1667ffffffffffffffff16146101255767ffffffffffffffff8160000160006101000a81548167ffffffffffffffff021916908367ffffffffffffffff1602179055507fc7f505b2f371ae2175ee4913f4499e1f2633a7b5936321eed1cdaeb6115181d267ffffffffffffffff60405161011c9190610173565b60405180910390a15b50565b60007ff0c57e16840df040f15088dc2f81fe391c3923bec73e23a9662efc9c229c6a00905090565b600067ffffffffffffffff82169050919050565b61016d81610150565b82525050565b60006020820190506101886000830184610164565b92915050565b615f598061019d6000396000f3fe6080604052600436106102725760003560e01c80636352211e1161014f578063a22cb465116100c1578063d6bd5db11161007a578063d6bd5db11461094e578063e0217cf614610979578063e985e9c5146109a2578063edcf24ad146109df578063f2fde38b14610a1c578063fa52c7d814610a4557610272565b8063a22cb46514610839578063b5e8069514610862578063b88d4fde1461088d578063c23dc68f146108a9578063c87b56dd146108e6578063d5abeb011461092357610272565b80638462151c116101135780638462151c146107155780638da5cb5b146107525780638edc4cc61461077d57806391d541ff146107a857806395d89b41146107d157806399a2557a146107fc57610272565b80636352211e1461062b57806367dd74ca146106685780636ccda0a61461068457806370a08231146106c1578063715018a6146106fe57610272565b806340a141ff116101e85780634b40e9b0116101ac5780634b40e9b0146105055780634d238c8e1461053057806350b447121461055957806355f804b31461059a57806356b6861c146105c35780635bbb2177146105ee57610272565b806340a141ff1461045057806342842e0e146104795780634610c74514610495578063463a94a5146104b15780634930b0c1146104dc57610272565b80631209b1f61161023a5780631209b1f614610361578063150b7a021461038c57806318160ddd146103c95780631caaf550146103f457806323b872dd1461041d5780633ccfd60b1461043957610272565b8063019db0ff1461027757806301ffc9a7146102a057806306fdde03146102dd578063081812fc14610308578063095ea7b314610345575b600080fd5b34801561028357600080fd5b5061029e60048036038101906102999190614822565b610a82565b005b3480156102ac57600080fd5b506102c760048036038101906102c291906148ba565b610d00565b6040516102d49190614902565b60405180910390f35b3480156102e957600080fd5b506102f2610d12565b6040516102ff91906149ad565b60405180910390f35b34801561031457600080fd5b5061032f600480360381019061032a91906149cf565b610dad565b60405161033c9190614a3d565b60405180910390f35b61035f600480360381019061035a9190614a84565b610e14565b005b34801561036d57600080fd5b50610376610e24565b6040516103839190614ad3565b60405180910390f35b34801561039857600080fd5b506103b360048036038101906103ae9190614b53565b610e2a565b6040516103c09190614bea565b60405180910390f35b3480156103d557600080fd5b506103de610e3f565b6040516103eb9190614ad3565b60405180910390f35b34801561040057600080fd5b5061041b60048036038101906104169190614ed1565b610ea7565b005b61043760048036038101906104329190614f2d565b611297565b005b34801561044557600080fd5b5061044e61158e565b005b34801561045c57600080fd5b5061047760048036038101906104729190614f80565b6115f6565b005b610493600480360381019061048e9190614f2d565b611659565b005b6104af60048036038101906104aa91906149cf565b611679565b005b3480156104bd57600080fd5b506104c6611a4a565b6040516104d39190614ad3565b60405180910390f35b3480156104e857600080fd5b5061050360048036038101906104fe91906149cf565b611a50565b005b34801561051157600080fd5b5061051a611c43565b6040516105279190614902565b60405180910390f35b34801561053c57600080fd5b5061055760048036038101906105529190614f80565b611c56565b005b34801561056557600080fd5b50610580600480360381019061057b91906149cf565b611cb9565b604051610591959493929190615033565b60405180910390f35b3480156105a657600080fd5b506105c160048036038101906105bc9190615086565b611d1c565b005b3480156105cf57600080fd5b506105d8611d37565b6040516105e59190614ad3565b60405180910390f35b3480156105fa57600080fd5b5061061560048036038101906106109190615125565b611d3d565b60405161062291906152d5565b60405180910390f35b34801561063757600080fd5b50610652600480360381019061064d91906149cf565b611d9d565b60405161065f9190614a3d565b60405180910390f35b610682600480360381019061067d91906149cf565b611daf565b005b34801561069057600080fd5b506106ab60048036038101906106a69190614f80565b6122eb565b6040516106b89190614ad3565b60405180910390f35b3480156106cd57600080fd5b506106e860048036038101906106e39190614f80565b612303565b6040516106f59190614ad3565b60405180910390f35b34801561070a57600080fd5b506107136123a3565b005b34801561072157600080fd5b5061073c60048036038101906107379190614f80565b6123b7565b60405161074991906153b5565b60405180910390f35b34801561075e57600080fd5b50610767612432565b6040516107749190614a3d565b60405180910390f35b34801561078957600080fd5b5061079261246a565b60405161079f9190614ad3565b60405180910390f35b3480156107b457600080fd5b506107cf60048036038101906107ca9190614822565b612470565b005b3480156107dd57600080fd5b506107e6612706565b6040516107f391906149ad565b60405180910390f35b34801561080857600080fd5b50610823600480360381019061081e91906153d7565b6127a1565b60405161083091906153b5565b60405180910390f35b34801561084557600080fd5b50610860600480360381019061085b919061542a565b6127b7565b005b34801561086e57600080fd5b506108776128cb565b60405161088491906149ad565b60405180910390f35b6108a760048036038101906108a2919061550b565b612959565b005b3480156108b557600080fd5b506108d060048036038101906108cb91906149cf565b6129ab565b6040516108dd91906155e3565b60405180910390f35b3480156108f257600080fd5b5061090d600480360381019061090891906149cf565b612a20565b60405161091a91906149ad565b60405180910390f35b34801561092f57600080fd5b50610938612a89565b6040516109459190614ad3565b60405180910390f35b34801561095a57600080fd5b50610963612a8f565b6040516109709190614ad3565b60405180910390f35b34801561098557600080fd5b506109a0600480360381019061099b91906155fe565b612a95565b005b3480156109ae57600080fd5b506109c960048036038101906109c4919061563e565b612da5565b6040516109d69190614902565b60405180910390f35b3480156109eb57600080fd5b50610a066004803603810190610a019190614f80565b612e42565b604051610a1391906153b5565b60405180910390f35b348015610a2857600080fd5b50610a436004803603810190610a3e9190614f80565b612e91565b005b348015610a5157600080fd5b50610a6c6004803603810190610a679190614f80565b612f17565b604051610a799190614902565b60405180910390f35b600a60003373ffffffffffffffffffffffffffffffffffffffff1673ffffffffffffffffffffffffffffffffffffffff16815260200190815260200160002060009054906101000a900460ff16610b05576040517f2b61b79700000000000000000000000000000000000000000000000000000000815260040160405180910390fd5b610b0d612f37565b60016002811115610b2157610b20614fad565b5b600b600084815260200190815260200160002060000160009054906101000a900460ff166002811115610b5757610b56614fad565b5b14610b8e576040517f4cb6d7c600000000000000000000000000000000000000000000000000000000815260040160405180910390fd5b610258600b600084815260200190815260200160002060010154610bb291906156ad565b4210610bea576040517f528acf4f00000000000000000000000000000000000000000000000000000000815260040160405180910390fd5b60008282604051602001610bff929190615723565b604051602081830303815290604052805190602001209050600b6000848152602001908152602001600020600401548114610c66576040517fb7b3378700000000000000000000000000000000000000000000000000000000815260040160405180910390fd5b6000801b600b6000858152602001908152602001600020600401819055506002600b600085815260200190815260200160002060000160006101000a81548160ff02191690836002811115610cbe57610cbd614fad565b5b0217905550827fd90e96dc598c9a693b0cefc073c80ff35fc409225fac97538341b0ed64e9cc7033604051610cf39190614a3d565b60405180910390a2505050565b6000610d0b82612fca565b9050919050565b6060610d1c61305c565b6002018054610d2a9061577e565b80601f0160208091040260200160405190810160405280929190818152602001828054610d569061577e565b8015610da35780601f10610d7857610100808354040283529160200191610da3565b820191906000526020600020905b815481529060010190602001808311610d8657829003601f168201915b5050505050905090565b6000610db882613089565b610dcd57610dcc63cf4700e460e01b613150565b5b610dd561305c565b600601600083815260200190815260200160002060000160009054906101000a900473ffffffffffffffffffffffffffffffffffffffff169050919050565b610e208282600161315a565b5050565b60015481565b600063150b7a0260e01b905095945050505050565b6000610e49613292565b610e5161305c565b60010154610e5d61305c565b60000154030390507fffffffffffffffffffffffffffffffffffffffffffffffffffffffffffffffff610e8e613297565b14610ea457610e9b61305c565b60080154810190505b90565b610eaf6132bf565b60000160019054906101000a900460ff16610ee357610ecc6132bf565b60000160009054906101000a900460ff1615610eec565b610eeb6132ec565b5b610f2b576040517f08c379a0000000000000000000000000000000000000000000000000000000008152600401610f2290615821565b60405180910390fd5b6000610f356132bf565b60000160019054906101000a900460ff161590508015610f98576001610f596132bf565b60000160016101000a81548160ff0219169083151502179055506001610f7d6132bf565b60000160006101000a81548160ff0219169083151502179055505b6000610fa2613303565b905060008160000160089054906101000a900460ff1615905060008260000160009054906101000a900467ffffffffffffffff1690506000808267ffffffffffffffff16148015610ff05750825b9050600060018367ffffffffffffffff16148015611025575060003073ffffffffffffffffffffffffffffffffffffffff163b145b905081158015611033575080155b1561106a576040517ff92ee8a900000000000000000000000000000000000000000000000000000000815260040160405180910390fd5b60018560000160006101000a81548167ffffffffffffffff021916908367ffffffffffffffff16021790555083156110ba5760018560000160086101000a81548160ff0219169083151502179055505b6110c261332b565b6110d48860000151896020015161338d565b6110dd876133f3565b6110e5613407565b8760400151600181905550876060015160028190555087608001516003908161110e91906159ed565b508760a001516004908161112291906159ed565b508760c001516005819055508760e00151600660006101000a81548160ff0219169083151502179055508761010001516007819055508760e00151156111ae574288610120015110156111a1576040517f8c5d9abe00000000000000000000000000000000000000000000000000000000815260040160405180910390fd5b8761012001516008819055505b6001600a60008973ffffffffffffffffffffffffffffffffffffffff1673ffffffffffffffffffffffffffffffffffffffff16815260200190815260200160002060006101000a81548160ff02191690831515021790555083156112625760008560000160086101000a81548160ff0219169083151502179055507fc7f505b2f371ae2175ee4913f4499e1f2633a7b5936321eed1cdaeb6115181d260016040516112599190615afa565b60405180910390a15b505050505080156112925760006112776132bf565b60000160016101000a81548160ff0219169083151502179055505b505050565b60006112a282613419565b905073ffffffffffffffffffffffffffffffffffffffff8473ffffffffffffffffffffffffffffffffffffffff161693508373ffffffffffffffffffffffffffffffffffffffff168173ffffffffffffffffffffffffffffffffffffffff16146113175761131663a114810060e01b613150565b5b6000806113238461354d565b91509150611339818761133461357d565b613585565b6113645761134e8661134961357d565b612da5565b611363576113626359c896be60e01b613150565b5b5b61137186868660016135c9565b801561137c57600082555b61138461305c565b60050160008773ffffffffffffffffffffffffffffffffffffffff1673ffffffffffffffffffffffffffffffffffffffff1681526020019081526020016000206000815460019003919050819055506113db61305c565b60050160008673ffffffffffffffffffffffffffffffffffffffff1673ffffffffffffffffffffffffffffffffffffffff168152602001908152602001600020600081546001019190508190555061145c85611438888887613844565b7c02000000000000000000000000000000000000000000000000000000001761386c565b61146461305c565b60040160008681526020019081526020016000208190555060007c020000000000000000000000000000000000000000000000000000000084160361150657600060018501905060006114b561305c565b60040160008381526020019081526020016000205403611504576114d761305c565b60000154811461150357836114ea61305c565b6004016000838152602001908152602001600020819055505b5b505b600073ffffffffffffffffffffffffffffffffffffffff8673ffffffffffffffffffffffffffffffffffffffff161690508481887fddf252ad1be2c89b69c2b068fc378daa952ba7f163c4a11628f55a4df523b3ef600080a4600081036115785761157763ea553b3460e01b613150565b5b6115858787876001613897565b50505050505050565b61159661389d565b61159e613924565b6115a6612432565b73ffffffffffffffffffffffffffffffffffffffff166108fc479081150290604051600060405180830381858888f193505050501580156115eb573d6000803e3d6000fd5b506115f461397b565b565b6115fe61389d565b6000600a60008373ffffffffffffffffffffffffffffffffffffffff1673ffffffffffffffffffffffffffffffffffffffff16815260200190815260200160002060006101000a81548160ff02191690831515021790555050565b61167483838360405180602001604052806000815250612959565b505050565b611681613924565b611689612f37565b6000816001546116999190615b15565b9050803410156116d5576040517f356680b700000000000000000000000000000000000000000000000000000000815260040160405180910390fd5b600254826116e1610e3f565b6116eb91906156ad565b1115611723576040517f8a164f6300000000000000000000000000000000000000000000000000000000815260040160405180910390fd5b60055482600960003373ffffffffffffffffffffffffffffffffffffffff1673ffffffffffffffffffffffffffffffffffffffff1681526020019081526020016000205461177191906156ad565b11156117a9576040517f53fad44600000000000000000000000000000000000000000000000000000000815260040160405180910390fd5b81600960003373ffffffffffffffffffffffffffffffffffffffff1673ffffffffffffffffffffffffffffffffffffffff16815260200190815260200160002060008282546117f891906156ad565b925050819055506000611809610e3f565b90506118153384613994565b60005b8381101561193f576000818361182e91906156ad565b90506040518060a001604052806000600281111561184f5761184e614fad565b5b81526020016000815260200160008152602001600073ffffffffffffffffffffffffffffffffffffffff1681526020016000801b815250600b600083815260200190815260200160002060008201518160000160006101000a81548160ff021916908360028111156118c4576118c3614fad565b5b0217905550602082015181600101556040820151816002015560608201518160030160006101000a81548173ffffffffffffffffffffffffffffffffffffffff021916908373ffffffffffffffffffffffffffffffffffffffff16021790555060808201518160040155905050508080600101915050611818565b503373ffffffffffffffffffffffffffffffffffffffff167f64f70b72cc0e9e53852e2481e43068b546390216d3d062dbe11d9ecf7580835f846040516119869190614ad3565b60405180910390a281341115611a3d57600082346119a49190615b57565b90503373ffffffffffffffffffffffffffffffffffffffff166108fc829081150290604051600060405180830381858888f193505050501580156119ec573d6000803e3d6000fd5b503373ffffffffffffffffffffffffffffffffffffffff167fa171b6942063c6f2800ce40a780edce37baa2b618571b11eedd1e69e626e7d7682604051611a339190614ad3565b60405180910390a2505b5050611a4761397b565b50565b60055481565b611aa0816000803373ffffffffffffffffffffffffffffffffffffffff1673ffffffffffffffffffffffffffffffffffffffff1681526020019081526020016000206139b290919063ffffffff16565b611ad6576040517f1c6963fc00000000000000000000000000000000000000000000000000000000815260040160405180910390fd5b6000600b600083815260200190815260200160002060030160006101000a81548173ffffffffffffffffffffffffffffffffffffffff021916908373ffffffffffffffffffffffffffffffffffffffff1602179055506000600b600083815260200190815260200160002060020181905550611b98816000803373ffffffffffffffffffffffffffffffffffffffff1673ffffffffffffffffffffffffffffffffffffffff1681526020019081526020016000206139cc90919063ffffffff16565b503073ffffffffffffffffffffffffffffffffffffffff166342842e0e3033846040518463ffffffff1660e01b8152600401611bd693929190615b8b565b600060405180830381600087803b158015611bf057600080fd5b505af1158015611c04573d6000803e3d6000fd5b50505050807fb3ff8f36767fd1eacff2dd8c2746e2dac680b68fc6e179dd2fc703fd650d5df533604051611c389190614a3d565b60405180910390a250565b600660009054906101000a900460ff1681565b611c5e61389d565b6001600a60008373ffffffffffffffffffffffffffffffffffffffff1673ffffffffffffffffffffffffffffffffffffffff16815260200190815260200160002060006101000a81548160ff02191690831515021790555050565b600b6020528060005260406000206000915090508060000160009054906101000a900460ff16908060010154908060020154908060030160009054906101000a900473ffffffffffffffffffffffffffffffffffffffff16908060040154905085565b611d2461389d565b8060049081611d3391906159ed565b5050565b61025881565b606080600084849050905060405191508082528060051b90508060208301016040525b60008114611d925760006020820391508186013590506000611d81826129ab565b905080836020860101525050611d60565b819250505092915050565b6000611da882613419565b9050919050565b611db7613924565b611dbf612f37565b3373ffffffffffffffffffffffffffffffffffffffff16600b600083815260200190815260200160002060030160009054906101000a900473ffffffffffffffffffffffffffffffffffffffff1673ffffffffffffffffffffffffffffffffffffffff1603611e5a576040517fd7b4c64400000000000000000000000000000000000000000000000000000000815260040160405180910390fd5b600073ffffffffffffffffffffffffffffffffffffffff16600b600083815260200190815260200160002060030160009054906101000a900473ffffffffffffffffffffffffffffffffffffffff1673ffffffffffffffffffffffffffffffffffffffff1603611ef6576040517f4f9476da00000000000000000000000000000000000000000000000000000000815260040160405180910390fd5b6005546001600960003373ffffffffffffffffffffffffffffffffffffffff1673ffffffffffffffffffffffffffffffffffffffff16815260200190815260200160002054611f4591906156ad565b1115611f7d576040517f53fad44600000000000000000000000000000000000000000000000000000000815260040160405180910390fd5b600b600082815260200190815260200160002060020154341015611fcd576040517f356680b700000000000000000000000000000000000000000000000000000000815260040160405180910390fd5b6000600b60008381526020019081526020016000206002015490506000600b600084815260200190815260200160002060030160009054906101000a900473ffffffffffffffffffffffffffffffffffffffff1690506001600960003373ffffffffffffffffffffffffffffffffffffffff1673ffffffffffffffffffffffffffffffffffffffff168152602001908152602001600020600082825461207391906156ad565b925050819055506000600b6000858152602001908152602001600020600201819055506000600b600085815260200190815260200160002060030160006101000a81548173ffffffffffffffffffffffffffffffffffffffff021916908373ffffffffffffffffffffffffffffffffffffffff16021790555061213c836000808473ffffffffffffffffffffffffffffffffffffffff1673ffffffffffffffffffffffffffffffffffffffff1681526020019081526020016000206139cc90919063ffffffff16565b503073ffffffffffffffffffffffffffffffffffffffff166342842e0e3033866040518463ffffffff1660e01b815260040161217a93929190615b8b565b600060405180830381600087803b15801561219457600080fd5b505af11580156121a8573d6000803e3d6000fd5b505050508073ffffffffffffffffffffffffffffffffffffffff166108fc839081150290604051600060405180830381858888f193505050501580156121f2573d6000803e3d6000fd5b50813411156122a257600082346122099190615b57565b90503373ffffffffffffffffffffffffffffffffffffffff166108fc829081150290604051600060405180830381858888f19350505050158015612251573d6000803e3d6000fd5b503373ffffffffffffffffffffffffffffffffffffffff167fa171b6942063c6f2800ce40a780edce37baa2b618571b11eedd1e69e626e7d76826040516122989190614ad3565b60405180910390a2505b827f44f19a44b8c509adc281ec35927694f6d25e501d0de1764890ab0637b8dcda488383336040516122d693929190615bc2565b60405180910390a250506122e861397b565b50565b60096020528060005260406000206000915090505481565b60008073ffffffffffffffffffffffffffffffffffffffff168273ffffffffffffffffffffffffffffffffffffffff160361234957612348638f4eb60460e01b613150565b5b67ffffffffffffffff61235a61305c565b60050160008473ffffffffffffffffffffffffffffffffffffffff1673ffffffffffffffffffffffffffffffffffffffff16815260200190815260200160002054169050919050565b6123ab61389d565b6123b560006139e6565b565b60607fffffffffffffffffffffffffffffffffffffffffffffffffffffffffffffffff6123e2613297565b146123f8576123f763bdba09d760e01b613150565b5b6000612402613292565b9050600061240e613abd565b9050606081831461242757612424858484613ad0565b90505b809350505050919050565b60008061243d613c8c565b90508060000160009054906101000a900473ffffffffffffffffffffffffffffffffffffffff1691505090565b60075481565b612478612f37565b3373ffffffffffffffffffffffffffffffffffffffff1661249883611d9d565b73ffffffffffffffffffffffffffffffffffffffff16146124e5576040517fe18d39ad00000000000000000000000000000000000000000000000000000000815260040160405180910390fd5b6000801b8103612521576040517fb7b3378700000000000000000000000000000000000000000000000000000000815260040160405180910390fd5b6001600281111561253557612534614fad565b5b600b600084815260200190815260200160002060000160009054906101000a900460ff16600281111561256b5761256a614fad565b5b036125d157610258600b60008481526020019081526020016000206001015461259491906156ad565b42116125cc576040517ff39b32cb00000000000000000000000000000000000000000000000000000000815260040160405180910390fd5b612692565b600060028111156125e5576125e4614fad565b5b600b600084815260200190815260200160002060000160009054906101000a900460ff16600281111561261b5761261a614fad565b5b14612652576040517fb61bb86a00000000000000000000000000000000000000000000000000000000815260040160405180910390fd5b6001600b600084815260200190815260200160002060000160006101000a81548160ff0219169083600281111561268c5761268b614fad565b5b02179055505b80600b60008481526020019081526020016000206004018190555042600b600084815260200190815260200160002060010181905550817fd5150cb470badd3a5aab07ab0d8dbad1b512edc632e12c6bf8cbd64c9bdbed1342836040516126fa929190615bf9565b60405180910390a25050565b606061271061305c565b600301805461271e9061577e565b80601f016020809104026020016040519081016040528092919081815260200182805461274a9061577e565b80156127975780601f1061276c57610100808354040283529160200191612797565b820191906000526020600020905b81548152906001019060200180831161277a57829003601f168201915b5050505050905090565b60606127ae848484613ad0565b90509392505050565b806127c061305c565b60070160006127cd61357d565b73ffffffffffffffffffffffffffffffffffffffff1673ffffffffffffffffffffffffffffffffffffffff16815260200190815260200160002060008473ffffffffffffffffffffffffffffffffffffffff1673ffffffffffffffffffffffffffffffffffffffff16815260200190815260200160002060006101000a81548160ff0219169083151502179055508173ffffffffffffffffffffffffffffffffffffffff1661287a61357d565b73ffffffffffffffffffffffffffffffffffffffff167f17307eab39ab6107e8899845ad3d59bd9653f200f220920489ca2b5937696c31836040516128bf9190614902565b60405180910390a35050565b600380546128d89061577e565b80601f01602080910402602001604051908101604052809291908181526020018280546129049061577e565b80156129515780601f1061292657610100808354040283529160200191612951565b820191906000526020600020905b81548152906001019060200180831161293457829003601f168201915b505050505081565b612964848484611297565b60008373ffffffffffffffffffffffffffffffffffffffff163b146129a55761298f84848484613cb4565b6129a4576129a363d1a57ed660e01b613150565b5b5b50505050565b6129b3614753565b6129bb613292565b8210612a1a576129c9613297565b8211156129e0576129d982613de3565b9050612a1b565b6129e8613abd565b821015612a19575b6129f982613e17565b612a0957816001900391506129f0565b612a1282613de3565b9050612a1b565b5b5b919050565b6060612a2b82613089565b612a61576040517fceea21b600000000000000000000000000000000000000000000000000000000815260040160405180910390fd5b6004604051602001612a739190615cb0565b6040516020818303038152906040529050919050565b60025481565b60085481565b612a9d612f37565b612aa682613089565b612adc576040517fceea21b600000000000000000000000000000000000000000000000000000000815260040160405180910390fd5b60646082600154612aed9190615b15565b612af79190615cf6565b811115612b30576040517f24fe119200000000000000000000000000000000000000000000000000000000815260040160405180910390fd5b612b80826000803373ffffffffffffffffffffffffffffffffffffffff1673ffffffffffffffffffffffffffffffffffffffff1681526020019081526020016000206139b290919063ffffffff16565b15612ba55780600b600084815260200190815260200160002060020181905550612d69565b3373ffffffffffffffffffffffffffffffffffffffff16612bc583611d9d565b73ffffffffffffffffffffffffffffffffffffffff1614612c12576040517fe18d39ad00000000000000000000000000000000000000000000000000000000815260040160405180910390fd5b612c1b82613e40565b60006002811115612c2f57612c2e614fad565b5b600b600084815260200190815260200160002060000160009054906101000a900460ff166002811115612c6557612c64614fad565b5b14612c9c576040517fb61bb86a00000000000000000000000000000000000000000000000000000000815260040160405180910390fd5b33600b600084815260200190815260200160002060030160006101000a81548173ffffffffffffffffffffffffffffffffffffffff021916908373ffffffffffffffffffffffffffffffffffffffff16021790555080600b600084815260200190815260200160002060020181905550612d5c826000803373ffffffffffffffffffffffffffffffffffffffff1673ffffffffffffffffffffffffffffffffffffffff168152602001908152602001600020613f6e90919063ffffffff16565b50612d68333084611659565b5b817f8fb4e2cb8424a126acfd629b3562dfe455465ec828c79c890db1e1ad1d69751082604051612d999190614ad3565b60405180910390a25050565b6000612daf61305c565b60070160008473ffffffffffffffffffffffffffffffffffffffff1673ffffffffffffffffffffffffffffffffffffffff16815260200190815260200160002060008373ffffffffffffffffffffffffffffffffffffffff1673ffffffffffffffffffffffffffffffffffffffff16815260200190815260200160002060009054906101000a900460ff16905092915050565b6060612e8a6000808473ffffffffffffffffffffffffffffffffffffffff1673ffffffffffffffffffffffffffffffffffffffff168152602001908152602001600020613f88565b9050919050565b612e9961389d565b600073ffffffffffffffffffffffffffffffffffffffff168173ffffffffffffffffffffffffffffffffffffffff1603612f0b5760006040517f1e4fbdf7000000000000000000000000000000000000000000000000000000008152600401612f029190614a3d565b60405180910390fd5b612f14816139e6565b50565b600a6020528060005260406000206000915054906101000a900460ff1681565b600660009054906101000a900460ff168015612f5557506008544210155b15612f8c576040517f1963c37d00000000000000000000000000000000000000000000000000000000815260040160405180910390fd5b600754421015612fc8576040517f61935eac00000000000000000000000000000000000000000000000000000000815260040160405180910390fd5b565b60006301ffc9a760e01b827bffffffffffffffffffffffffffffffffffffffffffffffffffffffff1916148061302557506380ac58cd60e01b827bffffffffffffffffffffffffffffffffffffffffffffffffffffffff1916145b806130555750635b5e139f60e01b827bffffffffffffffffffffffffffffffffffffffffffffffffffffffff1916145b9050919050565b6000807f2569078dfb4b0305704d3008e7403993ae9601b85f7ae5e742de3de8f8011c4090508091505090565b600081613094613292565b1161314a576130a1613297565b8211156130d4576130cd6130b361305c565b600401600084815260200190815260200160002054613fa9565b905061314b565b6130dc61305c565b600001548210156131495760005b60006130f461305c565b60040160008581526020019081526020016000205491508103613122578261311b90615d27565b92506130ea565b60007c01000000000000000000000000000000000000000000000000000000008216149150505b5b5b919050565b8060005260046000fd5b600061316583611d9d565b90508180156131a757508073ffffffffffffffffffffffffffffffffffffffff1661318e61357d565b73ffffffffffffffffffffffffffffffffffffffff1614155b156131d3576131bd816131b861357d565b612da5565b6131d2576131d163cfb3b94260e01b613150565b5b5b836131dc61305c565b600601600085815260200190815260200160002060000160006101000a81548173ffffffffffffffffffffffffffffffffffffffff021916908373ffffffffffffffffffffffffffffffffffffffff160217905550828473ffffffffffffffffffffffffffffffffffffffff168273ffffffffffffffffffffffffffffffffffffffff167f8c5be1e5ebec7d5bd14f71427d1e84f3dd0314c0f7b2291e5b200ac8c7c3b92560405160405180910390a450505050565b600090565b60007fffffffffffffffffffffffffffffffffffffffffffffffffffffffffffffffff905090565b6000807fee151c8401928dc223602bb187aff91b9a56c7cae5476ef1b3287b085a16c85f90508091505090565b6000803090506000813b9050600081149250505090565b60007ff0c57e16840df040f15088dc2f81fe391c3923bec73e23a9662efc9c229c6a00905090565b6133336132bf565b60000160019054906101000a900460ff16613383576040517f08c379a000000000000000000000000000000000000000000000000000000000815260040161337a90615dc2565b60405180910390fd5b61338b613fea565b565b6133956132bf565b60000160019054906101000a900460ff166133e5576040517f08c379a00000000000000000000000000000000000000000000000000000000081526004016133dc90615dc2565b60405180910390fd5b6133ef8282614044565b5050565b6133fb614110565b61340481614150565b50565b61340f614110565b6134176141d6565b565b600081613424613292565b116135375761343161305c565b6004016000838152602001908152602001600020549050613450613297565b8211156134755761346081613fa9565b6135485761347463df2d9b4260e01b613150565b5b6000810361350e5761348561305c565b6000015482106134a05761349f63df2d9b4260e01b613150565b5b5b6134a961305c565b60040160008360019003935083815260200190815260200160002054905060008103156135095760007c0100000000000000000000000000000000000000000000000000000000821603156135485761350863df2d9b4260e01b613150565b5b6134a1565b60007c010000000000000000000000000000000000000000000000000000000082160315613548575b61354763df2d9b4260e01b613150565b5b919050565b600080600061355a61305c565b600601600085815260200190815260200160002090508092508254915050915091565b600033905090565b600073ffffffffffffffffffffffffffffffffffffffff8316925073ffffffffffffffffffffffffffffffffffffffff821691508382148383141790509392505050565b600073ffffffffffffffffffffffffffffffffffffffff168473ffffffffffffffffffffffffffffffffffffffff16141580156136335750600073ffffffffffffffffffffffffffffffffffffffff168373ffffffffffffffffffffffffffffffffffffffff1614155b801561363f5750600181145b1561383e5761364d82613e40565b600073ffffffffffffffffffffffffffffffffffffffff16600b600084815260200190815260200160002060030160009054906101000a900473ffffffffffffffffffffffffffffffffffffffff1673ffffffffffffffffffffffffffffffffffffffff161461383d576000600b600084815260200190815260200160002060030160009054906101000a900473ffffffffffffffffffffffffffffffffffffffff1673ffffffffffffffffffffffffffffffffffffffff168573ffffffffffffffffffffffffffffffffffffffff1614801561375557503073ffffffffffffffffffffffffffffffffffffffff168473ffffffffffffffffffffffffffffffffffffffff16145b905060003073ffffffffffffffffffffffffffffffffffffffff168673ffffffffffffffffffffffffffffffffffffffff161480156137f55750600b600085815260200190815260200160002060030160009054906101000a900473ffffffffffffffffffffffffffffffffffffffff1673ffffffffffffffffffffffffffffffffffffffff168573ffffffffffffffffffffffffffffffffffffffff16145b905081158015613803575080155b1561383a576040517f94ad34e400000000000000000000000000000000000000000000000000000000815260040160405180910390fd5b50505b5b50505050565b60008060e883901c905060e861385b8686846141f7565b62ffffff16901b9150509392505050565b600073ffffffffffffffffffffffffffffffffffffffff83169250814260a01b178317905092915050565b50505050565b6138a5614200565b73ffffffffffffffffffffffffffffffffffffffff166138c3612432565b73ffffffffffffffffffffffffffffffffffffffff1614613922576138e6614200565b6040517f118cdaa70000000000000000000000000000000000000000000000000000000081526004016139199190614a3d565b60405180910390fd5b565b600061392e614208565b9050600281600001540361396e576040517f3ee5aeb500000000000000000000000000000000000000000000000000000000815260040160405180910390fd5b6002816000018190555050565b6000613985614208565b90506001816000018190555050565b6139ae828260405180602001604052806000815250614230565b5050565b60006139c4836000018360001b6142bf565b905092915050565b60006139de836000018360001b6142e2565b905092915050565b60006139f0613c8c565b905060008160000160009054906101000a900473ffffffffffffffffffffffffffffffffffffffff169050828260000160006101000a81548173ffffffffffffffffffffffffffffffffffffffff021916908373ffffffffffffffffffffffffffffffffffffffff1602179055508273ffffffffffffffffffffffffffffffffffffffff168173ffffffffffffffffffffffffffffffffffffffff167f8be0079c531659141344cd1fd0a4f28419497f9722a3daafe3b4186f6b6457e060405160405180910390a3505050565b6000613ac761305c565b60000154905090565b6060818310613aea57613ae96332c1995a60e01b613150565b5b613af2613292565b831015613b0457613b01613292565b92505b6000613b0e613abd565b905060007fffffffffffffffffffffffffffffffffffffffffffffffffffffffffffffffff613b3b613297565b03613b465781613b48565b835b9050808410613b55578093505b6000613b6087612303565b9050848610613b6e57600090505b60008114613c82578086860311613b855785850390505b600060405194506001820160051b85019050806040526000613ba6886129ab565b905060008160400151613bbb57816000015190505b60005b7fffffffffffffffffffffffffffffffffffffffffffffffffffffffffffffffff613be7613297565b14613c1657868a03613c01576001613bfd613297565b0199505b613c09613297565b8a1115613c1557600091505b5b613c1f8a613de3565b9250604083015160008114613c375760009250613c5d565b835115613c4357835192505b8b831860601b613c5c576001820191508a8260051b8a01525b5b5060018a01995083604052888a1480613c7557508481145b15613bbe57808852505050505b5050509392505050565b60007f9016d09d72d40fdae2fd8ceac6b6234c7706214fd39c1cd1e609a0528c199300905090565b60008373ffffffffffffffffffffffffffffffffffffffff1663150b7a02613cda61357d565b8786866040518563ffffffff1660e01b8152600401613cfc9493929190615e37565b6020604051808303816000875af1925050508015613d3857506040513d601f19601f82011682018060405250810190613d359190615e98565b60015b613d90573d8060008114613d68576040519150601f19603f3d011682016040523d82523d6000602084013e613d6d565b606091505b506000815103613d8857613d8763d1a57ed660e01b613150565b5b805181602001fd5b63150b7a0260e01b7bffffffffffffffffffffffffffffffffffffffffffffffffffffffff1916817bffffffffffffffffffffffffffffffffffffffffffffffffffffffff191614915050949350505050565b613deb614753565b613e10613df661305c565b6004016000848152602001908152602001600020546143f6565b9050919050565b600080613e2261305c565b60040160008481526020019081526020016000205414159050919050565b60016002811115613e5457613e53614fad565b5b600b600083815260200190815260200160002060000160009054906101000a900460ff166002811115613e8a57613e89614fad565b5b03613f6b5742610258600b600084815260200190815260200160002060010154613eb491906156ad565b1015613f38576000600b600083815260200190815260200160002060000160006101000a81548160ff02191690836002811115613ef457613ef3614fad565b5b02179055506000600b6000838152602001908152602001600020600101819055506000801b600b600083815260200190815260200160002060040181905550613f6a565b6040517ff39b32cb00000000000000000000000000000000000000000000000000000000815260040160405180910390fd5b5b50565b6000613f80836000018360001b6144ac565b905092915050565b60606000613f988360000161451c565b905060608190508092505050919050565b60007c0100000000000000000000000000000000000000000000000000000000821673ffffffffffffffffffffffffffffffffffffffff8316119050919050565b613ff26132bf565b60000160019054906101000a900460ff16614042576040517f08c379a000000000000000000000000000000000000000000000000000000000815260040161403990615dc2565b60405180910390fd5b565b61404c6132bf565b60000160019054906101000a900460ff1661409c576040517f08c379a000000000000000000000000000000000000000000000000000000000815260040161409390615dc2565b60405180910390fd5b816140a561305c565b60020190816140b491906159ed565b50806140be61305c565b60030190816140cd91906159ed565b506140d6613292565b6140de61305c565b600001819055506140ed613292565b6140f5613297565b101561410c5761410b63fed8210f60e01b613150565b5b5050565b614118614578565b61414e576040517fd7e6bcf800000000000000000000000000000000000000000000000000000000815260040160405180910390fd5b565b614158614110565b600073ffffffffffffffffffffffffffffffffffffffff168173ffffffffffffffffffffffffffffffffffffffff16036141ca5760006040517f1e4fbdf70000000000000000000000000000000000000000000000000000000081526004016141c19190614a3d565b60405180910390fd5b6141d3816139e6565b50565b6141de614110565b60006141e8614208565b90506001816000018190555050565b60009392505050565b600033905090565b60007f9b779b17422d0df92223018b32b4d1fa46e071723d6817e2486d003becc55f00905090565b61423a8383614598565b60008373ffffffffffffffffffffffffffffffffffffffff163b146142ba57600061426361305c565b600001549050600083820390505b6142846000868380600101945086613cb4565b6142995761429863d1a57ed660e01b613150565b5b81811061427157816142a961305c565b60000154146142b757600080fd5b50505b505050565b600080836001016000848152602001908152602001600020541415905092915050565b600080836001016000848152602001908152602001600020549050600081146143ea5760006001826143149190615b57565b905060006001866000018054905061432c9190615b57565b905080821461439b57600086600001828154811061434d5761434c615ec5565b5b906000526020600020015490508087600001848154811061437157614370615ec5565b5b90600052602060002001819055508387600101600083815260200190815260200160002081905550505b856000018054806143af576143ae615ef4565b5b6001900381819060005260206000200160009055905585600101600086815260200190815260200160002060009055600193505050506143f0565b60009150505b92915050565b6143fe614753565b81816000019073ffffffffffffffffffffffffffffffffffffffff16908173ffffffffffffffffffffffffffffffffffffffff168152505060a082901c816020019067ffffffffffffffff16908167ffffffffffffffff168152505060007c01000000000000000000000000000000000000000000000000000000008316141581604001901515908115158152505060e882901c816060019062ffffff16908162ffffff1681525050919050565b60006144b883836142bf565b614511578260000182908060018154018082558091505060019003906000526020600020016000909190919091505582600001805490508360010160008481526020019081526020016000208190555060019050614516565b600090505b92915050565b60608160000180548060200260200160405190810160405280929190818152602001828054801561456c57602002820191906000526020600020905b815481526020019060010190808311614558575b50505050509050919050565b6000614582613303565b60000160089054906101000a900460ff16905090565b60006145a261305c565b600001549050600082036145c1576145c063b562e8dd60e01b613150565b5b6145ce60008483856135c9565b6145ee836145df6000866000613844565b6145e885614743565b1761386c565b6145f661305c565b600401600083815260200190815260200160002081905550600160406001901b17820261462161305c565b60050160008573ffffffffffffffffffffffffffffffffffffffff1673ffffffffffffffffffffffffffffffffffffffff16815260200190815260200160002060008282540192505081905550600073ffffffffffffffffffffffffffffffffffffffff8473ffffffffffffffffffffffffffffffffffffffff16169050600081036146b8576146b7632e07630060e01b613150565b5b6000838301905060008390506146cc613297565b6001830311156146e7576146e66381647e3a60e01b613150565b5b5b808360007fddf252ad1be2c89b69c2b068fc378daa952ba7f163c4a11628f55a4df523b3ef600080a48181600101915081036146e8578161472761305c565b6000018190555050505061473e6000848385613897565b505050565b60006001821460e11b9050919050565b6040518060800160405280600073ffffffffffffffffffffffffffffffffffffffff168152602001600067ffffffffffffffff168152602001600015158152602001600062ffffff1681525090565b6000604051905090565b600080fd5b600080fd5b6000819050919050565b6147c9816147b6565b81146147d457600080fd5b50565b6000813590506147e6816147c0565b92915050565b6000819050919050565b6147ff816147ec565b811461480a57600080fd5b50565b60008135905061481c816147f6565b92915050565b60008060408385031215614839576148386147ac565b5b6000614847858286016147d7565b92505060206148588582860161480d565b9150509250929050565b60007fffffffff0000000000000000000000000000000000000000000000000000000082169050919050565b61489781614862565b81146148a257600080fd5b50565b6000813590506148b48161488e565b92915050565b6000602082840312156148d0576148cf6147ac565b5b60006148de848285016148a5565b91505092915050565b60008115159050919050565b6148fc816148e7565b82525050565b600060208201905061491760008301846148f3565b92915050565b600081519050919050565b600082825260208201905092915050565b60005b8381101561495757808201518184015260208101905061493c565b60008484015250505050565b6000601f19601f8301169050919050565b600061497f8261491d565b6149898185614928565b9350614999818560208601614939565b6149a281614963565b840191505092915050565b600060208201905081810360008301526149c78184614974565b905092915050565b6000602082840312156149e5576149e46147ac565b5b60006149f3848285016147d7565b91505092915050565b600073ffffffffffffffffffffffffffffffffffffffff82169050919050565b6000614a27826149fc565b9050919050565b614a3781614a1c565b82525050565b6000602082019050614a526000830184614a2e565b92915050565b614a6181614a1c565b8114614a6c57600080fd5b50565b600081359050614a7e81614a58565b92915050565b60008060408385031215614a9b57614a9a6147ac565b5b6000614aa985828601614a6f565b9250506020614aba858286016147d7565b9150509250929050565b614acd816147b6565b82525050565b6000602082019050614ae86000830184614ac4565b92915050565b600080fd5b600080fd5b600080fd5b60008083601f840112614b1357614b12614aee565b5b8235905067ffffffffffffffff811115614b3057614b2f614af3565b5b602083019150836001820283011115614b4c57614b4b614af8565b5b9250929050565b600080600080600060808688031215614b6f57614b6e6147ac565b5b6000614b7d88828901614a6f565b9550506020614b8e88828901614a6f565b9450506040614b9f888289016147d7565b935050606086013567ffffffffffffffff811115614bc057614bbf6147b1565b5b614bcc88828901614afd565b92509250509295509295909350565b614be481614862565b82525050565b6000602082019050614bff6000830184614bdb565b92915050565b600080fd5b7f4e487b7100000000000000000000000000000000000000000000000000000000600052604160045260246000fd5b614c4282614963565b810181811067ffffffffffffffff82111715614c6157614c60614c0a565b5b80604052505050565b6000614c746147a2565b9050614c808282614c39565b919050565b600080fd5b600080fd5b600067ffffffffffffffff821115614caa57614ca9614c0a565b5b614cb382614963565b9050602081019050919050565b82818337600083830152505050565b6000614ce2614cdd84614c8f565b614c6a565b905082815260208101848484011115614cfe57614cfd614c8a565b5b614d09848285614cc0565b509392505050565b600082601f830112614d2657614d25614aee565b5b8135614d36848260208601614ccf565b91505092915050565b614d48816148e7565b8114614d5357600080fd5b50565b600081359050614d6581614d3f565b92915050565b60006101408284031215614d8257614d81614c05565b5b614d8d610140614c6a565b9050600082013567ffffffffffffffff811115614dad57614dac614c85565b5b614db984828501614d11565b600083015250602082013567ffffffffffffffff811115614ddd57614ddc614c85565b5b614de984828501614d11565b6020830152506040614dfd848285016147d7565b6040830152506060614e11848285016147d7565b606083015250608082013567ffffffffffffffff811115614e3557614e34614c85565b5b614e4184828501614d11565b60808301525060a082013567ffffffffffffffff811115614e6557614e64614c85565b5b614e7184828501614d11565b60a08301525060c0614e85848285016147d7565b60c08301525060e0614e9984828501614d56565b60e083015250610100614eae848285016147d7565b61010083015250610120614ec4848285016147d7565b6101208301525092915050565b60008060408385031215614ee857614ee76147ac565b5b600083013567ffffffffffffffff811115614f0657614f056147b1565b5b614f1285828601614d6b565b9250506020614f2385828601614a6f565b9150509250929050565b600080600060608486031215614f4657614f456147ac565b5b6000614f5486828701614a6f565b9350506020614f6586828701614a6f565b9250506040614f76868287016147d7565b9150509250925092565b600060208284031215614f9657614f956147ac565b5b6000614fa484828501614a6f565b91505092915050565b7f4e487b7100000000000000000000000000000000000000000000000000000000600052602160045260246000fd5b60038110614fed57614fec614fad565b5b50565b6000819050614ffe82614fdc565b919050565b600061500e82614ff0565b9050919050565b61501e81615003565b82525050565b61502d816147ec565b82525050565b600060a0820190506150486000830188615015565b6150556020830187614ac4565b6150626040830186614ac4565b61506f6060830185614a2e565b61507c6080830184615024565b9695505050505050565b60006020828403121561509c5761509b6147ac565b5b600082013567ffffffffffffffff8111156150ba576150b96147b1565b5b6150c684828501614d11565b91505092915050565b60008083601f8401126150e5576150e4614aee565b5b8235905067ffffffffffffffff81111561510257615101614af3565b5b60208301915083602082028301111561511e5761511d614af8565b5b9250929050565b6000806020838503121561513c5761513b6147ac565b5b600083013567ffffffffffffffff81111561515a576151596147b1565b5b615166858286016150cf565b92509250509250929050565b600081519050919050565b600082825260208201905092915050565b6000819050602082019050919050565b6151a781614a1c565b82525050565b600067ffffffffffffffff82169050919050565b6151ca816151ad565b82525050565b6151d9816148e7565b82525050565b600062ffffff82169050919050565b6151f7816151df565b82525050565b608082016000820151615213600085018261519e565b50602082015161522660208501826151c1565b50604082015161523960408501826151d0565b50606082015161524c60608501826151ee565b50505050565b600061525e83836151fd565b60808301905092915050565b6000602082019050919050565b600061528282615172565b61528c818561517d565b93506152978361518e565b8060005b838110156152c85781516152af8882615252565b97506152ba8361526a565b92505060018101905061529b565b5085935050505092915050565b600060208201905081810360008301526152ef8184615277565b905092915050565b600081519050919050565b600082825260208201905092915050565b6000819050602082019050919050565b61532c816147b6565b82525050565b600061533e8383615323565b60208301905092915050565b6000602082019050919050565b6000615362826152f7565b61536c8185615302565b935061537783615313565b8060005b838110156153a857815161538f8882615332565b975061539a8361534a565b92505060018101905061537b565b5085935050505092915050565b600060208201905081810360008301526153cf8184615357565b905092915050565b6000806000606084860312156153f0576153ef6147ac565b5b60006153fe86828701614a6f565b935050602061540f868287016147d7565b9250506040615420868287016147d7565b9150509250925092565b60008060408385031215615441576154406147ac565b5b600061544f85828601614a6f565b925050602061546085828601614d56565b9150509250929050565b600067ffffffffffffffff82111561548557615484614c0a565b5b61548e82614963565b9050602081019050919050565b60006154ae6154a98461546a565b614c6a565b9050828152602081018484840111156154ca576154c9614c8a565b5b6154d5848285614cc0565b509392505050565b600082601f8301126154f2576154f1614aee565b5b813561550284826020860161549b565b91505092915050565b60008060008060808587031215615525576155246147ac565b5b600061553387828801614a6f565b945050602061554487828801614a6f565b9350506040615555878288016147d7565b925050606085013567ffffffffffffffff811115615576576155756147b1565b5b615582878288016154dd565b91505092959194509250565b6080820160008201516155a4600085018261519e565b5060208201516155b760208501826151c1565b5060408201516155ca60408501826151d0565b5060608201516155dd60608501826151ee565b50505050565b60006080820190506155f8600083018461558e565b92915050565b60008060408385031215615615576156146147ac565b5b6000615623858286016147d7565b9250506020615634858286016147d7565b9150509250929050565b60008060408385031215615655576156546147ac565b5b600061566385828601614a6f565b925050602061567485828601614a6f565b9150509250929050565b7f4e487b7100000000000000000000000000000000000000000000000000000000600052601160045260246000fd5b60006156b8826147b6565b91506156c3836147b6565b92508282019050808211156156db576156da61567e565b5b92915050565b6000819050919050565b6156fc6156f7826147b6565b6156e1565b82525050565b6000819050919050565b61571d615718826147ec565b615702565b82525050565b600061572f82856156eb565b60208201915061573f828461570c565b6020820191508190509392505050565b7f4e487b7100000000000000000000000000000000000000000000000000000000600052602260045260246000fd5b6000600282049050600182168061579657607f821691505b6020821081036157a9576157a861574f565b5b50919050565b7f455243373231415f5f496e697469616c697a61626c653a20636f6e747261637460008201527f20697320616c726561647920696e697469616c697a6564000000000000000000602082015250565b600061580b603783614928565b9150615816826157af565b604082019050919050565b6000602082019050818103600083015261583a816157fe565b9050919050565b60008190508160005260206000209050919050565b60006020601f8301049050919050565b600082821b905092915050565b6000600883026158a37fffffffffffffffffffffffffffffffffffffffffffffffffffffffffffffffff82615866565b6158ad8683615866565b95508019841693508086168417925050509392505050565b6000819050919050565b60006158ea6158e56158e0846147b6565b6158c5565b6147b6565b9050919050565b6000819050919050565b615904836158cf565b615918615910826158f1565b848454615873565b825550505050565b600090565b61592d615920565b6159388184846158fb565b505050565b5b8181101561595c57615951600082615925565b60018101905061593e565b5050565b601f8211156159a15761597281615841565b61597b84615856565b8101602085101561598a578190505b61599e61599685615856565b83018261593d565b50505b505050565b600082821c905092915050565b60006159c4600019846008026159a6565b1980831691505092915050565b60006159dd83836159b3565b9150826002028217905092915050565b6159f68261491d565b67ffffffffffffffff811115615a0f57615a0e614c0a565b5b615a19825461577e565b615a24828285615960565b600060209050601f831160018114615a575760008415615a45578287015190505b615a4f85826159d1565b865550615ab7565b601f198416615a6586615841565b60005b82811015615a8d57848901518255600182019150602085019450602081019050615a68565b86831015615aaa5784890151615aa6601f8916826159b3565b8355505b6001600288020188555050505b505050505050565b6000819050919050565b6000615ae4615adf615ada84615abf565b6158c5565b6151ad565b9050919050565b615af481615ac9565b82525050565b6000602082019050615b0f6000830184615aeb565b92915050565b6000615b20826147b6565b9150615b2b836147b6565b9250828202615b39816147b6565b91508282048414831517615b5057615b4f61567e565b5b5092915050565b6000615b62826147b6565b9150615b6d836147b6565b9250828203905081811115615b8557615b8461567e565b5b92915050565b6000606082019050615ba06000830186614a2e565b615bad6020830185614a2e565b615bba6040830184614ac4565b949350505050565b6000606082019050615bd76000830186614ac4565b615be46020830185614a2e565b615bf16040830184614a2e565b949350505050565b6000604082019050615c0e6000830185614ac4565b615c1b6020830184615024565b9392505050565b600081905092915050565b60008154615c3a8161577e565b615c448186615c22565b94506001821660008114615c5f5760018114615c7457615ca7565b60ff1983168652811515820286019350615ca7565b615c7d85615841565b60005b83811015615c9f57815481890152600182019150602081019050615c80565b838801955050505b50505092915050565b6000615cbc8284615c2d565b915081905092915050565b7f4e487b7100000000000000000000000000000000000000000000000000000000600052601260045260246000fd5b6000615d01826147b6565b9150615d0c836147b6565b925082615d1c57615d1b615cc7565b5b828204905092915050565b6000615d32826147b6565b915060008203615d4557615d4461567e565b5b600182039050919050565b7f455243373231415f5f496e697469616c697a61626c653a20636f6e747261637460008201527f206973206e6f7420696e697469616c697a696e67000000000000000000000000602082015250565b6000615dac603483614928565b9150615db782615d50565b604082019050919050565b60006020820190508181036000830152615ddb81615d9f565b9050919050565b600081519050919050565b600082825260208201905092915050565b6000615e0982615de2565b615e138185615ded565b9350615e23818560208601614939565b615e2c81614963565b840191505092915050565b6000608082019050615e4c6000830187614a2e565b615e596020830186614a2e565b615e666040830185614ac4565b8181036060830152615e788184615dfe565b905095945050505050565b600081519050615e928161488e565b92915050565b600060208284031215615eae57615ead6147ac565b5b6000615ebc84828501615e83565b91505092915050565b7f4e487b7100000000000000000000000000000000000000000000000000000000600052603260045260246000fd5b7f4e487b7100000000000000000000000000000000000000000000000000000000600052603160045260246000fdfea2646970667358221220fa64305f6c4a2dd0ccd79d2108f57ef1b67f77f234d08819d5acc16cf01f696f64736f6c634300081c0033",
    "linkReferences": {},
    "deployedLinkReferences": {}
}